{
  "_format": "hh-sol-artifact-1",
  "contractName": "Oddyssey",
  "sourceName": "contracts/Oddyssey.sol",
  "abi": [
    {
      "inputs": [
        {
          "internalType": "address",
          "name": "_devWallet",
          "type": "address"
        },
        {
          "internalType": "uint256",
          "name": "_initialEntryFee",
          "type": "uint256"
        }
      ],
      "stateMutability": "nonpayable",
      "type": "constructor"
    },
    {
      "inputs": [],
      "name": "DataNotFound",
      "type": "error"
    },
    {
      "inputs": [],
      "name": "InsufficientFunds",
      "type": "error"
    },
    {
      "inputs": [],
      "name": "InvalidInput",
      "type": "error"
    },
    {
      "inputs": [],
      "name": "InvalidState",
      "type": "error"
    },
    {
      "inputs": [],
      "name": "InvalidTiming",
      "type": "error"
    },
    {
      "inputs": [
        {
          "internalType": "address",
          "name": "owner",
          "type": "address"
        }
      ],
      "name": "OwnableInvalidOwner",
      "type": "error"
    },
    {
      "inputs": [
        {
          "internalType": "address",
          "name": "account",
          "type": "address"
        }
      ],
      "name": "OwnableUnauthorizedAccount",
      "type": "error"
    },
    {
      "inputs": [],
      "name": "ReentrancyGuardReentrantCall",
      "type": "error"
    },
    {
      "inputs": [],
      "name": "TransferFailed",
      "type": "error"
    },
    {
      "inputs": [],
      "name": "Unauthorized",
      "type": "error"
    },
    {
      "anonymous": false,
      "inputs": [
        {
          "indexed": true,
          "internalType": "uint256",
          "name": "cycleId",
          "type": "uint256"
        },
        {
          "indexed": false,
          "internalType": "uint256",
          "name": "totalVolume",
          "type": "uint256"
        },
        {
          "indexed": false,
          "internalType": "uint32",
          "name": "totalSlips",
          "type": "uint32"
        },
        {
          "indexed": false,
          "internalType": "uint256",
          "name": "averageScore",
          "type": "uint256"
        }
      ],
      "name": "AnalyticsUpdated",
      "type": "event"
    },
    {
      "anonymous": false,
      "inputs": [
        {
          "indexed": true,
          "internalType": "uint256",
          "name": "cycleId",
          "type": "uint256"
        },
        {
          "indexed": false,
          "internalType": "uint256",
          "name": "endTime",
          "type": "uint256"
        },
        {
          "indexed": false,
          "internalType": "uint32",
          "name": "totalSlips",
          "type": "uint32"
        }
      ],
      "name": "CycleEnded",
      "type": "event"
    },
    {
      "anonymous": false,
      "inputs": [
        {
          "indexed": true,
          "internalType": "uint256",
          "name": "cycleId",
          "type": "uint256"
        },
        {
          "indexed": false,
          "internalType": "uint256",
          "name": "prizePool",
          "type": "uint256"
        }
      ],
      "name": "CycleResolved",
      "type": "event"
    },
    {
      "anonymous": false,
      "inputs": [
        {
          "indexed": true,
          "internalType": "uint256",
          "name": "cycleId",
          "type": "uint256"
        },
        {
          "indexed": false,
          "internalType": "uint256",
          "name": "endTime",
          "type": "uint256"
        }
      ],
      "name": "CycleStarted",
      "type": "event"
    },
    {
      "anonymous": false,
      "inputs": [
        {
          "indexed": true,
          "internalType": "uint256",
          "name": "newFee",
          "type": "uint256"
        }
      ],
      "name": "EntryFeeSet",
      "type": "event"
    },
    {
      "anonymous": false,
      "inputs": [
        {
          "indexed": true,
          "internalType": "uint256",
          "name": "cycleId",
          "type": "uint256"
        },
        {
          "indexed": true,
          "internalType": "address",
          "name": "player",
          "type": "address"
        },
        {
          "indexed": true,
          "internalType": "uint256",
          "name": "slipId",
          "type": "uint256"
        },
        {
          "indexed": false,
          "internalType": "uint8",
          "name": "rank",
          "type": "uint8"
        },
        {
          "indexed": false,
          "internalType": "uint256",
          "name": "finalScore",
          "type": "uint256"
        }
      ],
      "name": "LeaderboardUpdated",
      "type": "event"
    },
    {
      "anonymous": false,
      "inputs": [
        {
          "indexed": true,
          "internalType": "address",
          "name": "user",
          "type": "address"
        },
        {
          "indexed": false,
          "internalType": "uint256",
          "name": "pointsEarned",
          "type": "uint256"
        },
        {
          "indexed": false,
          "internalType": "uint256",
          "name": "correctPredictions",
          "type": "uint256"
        },
        {
          "indexed": false,
          "internalType": "uint256",
          "name": "totalReputation",
          "type": "uint256"
        }
      ],
      "name": "OddysseyReputationUpdated",
      "type": "event"
    },
    {
      "anonymous": false,
      "inputs": [
        {
          "indexed": true,
          "internalType": "address",
          "name": "newOracle",
          "type": "address"
        }
      ],
      "name": "OracleSet",
      "type": "event"
    },
    {
      "anonymous": false,
      "inputs": [
        {
          "indexed": true,
          "internalType": "address",
          "name": "previousOwner",
          "type": "address"
        },
        {
          "indexed": true,
          "internalType": "address",
          "name": "newOwner",
          "type": "address"
        }
      ],
      "name": "OwnershipTransferred",
      "type": "event"
    },
    {
      "anonymous": false,
      "inputs": [
        {
          "indexed": true,
          "internalType": "uint256",
          "name": "cycleId",
          "type": "uint256"
        },
        {
          "indexed": true,
          "internalType": "address",
          "name": "player",
          "type": "address"
        },
        {
          "indexed": false,
          "internalType": "uint256",
          "name": "rank",
          "type": "uint256"
        },
        {
          "indexed": false,
          "internalType": "uint256",
          "name": "amount",
          "type": "uint256"
        }
      ],
      "name": "PrizeClaimed",
      "type": "event"
    },
    {
      "anonymous": false,
      "inputs": [
        {
          "indexed": true,
          "internalType": "uint256",
          "name": "fromCycleId",
          "type": "uint256"
        },
        {
          "indexed": true,
          "internalType": "uint256",
          "name": "toCycleId",
          "type": "uint256"
        },
        {
          "indexed": false,
          "internalType": "uint256",
          "name": "amount",
          "type": "uint256"
        }
      ],
      "name": "PrizeRollover",
      "type": "event"
    },
    {
      "anonymous": false,
      "inputs": [
        {
          "indexed": true,
          "internalType": "uint256",
          "name": "slipId",
          "type": "uint256"
        },
        {
          "indexed": true,
          "internalType": "address",
          "name": "player",
          "type": "address"
        },
        {
          "indexed": true,
          "internalType": "uint256",
          "name": "cycleId",
          "type": "uint256"
        },
        {
          "indexed": false,
          "internalType": "uint8",
          "name": "correctCount",
          "type": "uint8"
        },
        {
          "indexed": false,
          "internalType": "uint256",
          "name": "finalScore",
          "type": "uint256"
        }
      ],
      "name": "SlipEvaluated",
      "type": "event"
    },
    {
      "anonymous": false,
      "inputs": [
        {
          "indexed": true,
          "internalType": "uint256",
          "name": "cycleId",
          "type": "uint256"
        },
        {
          "indexed": true,
          "internalType": "address",
          "name": "player",
          "type": "address"
        },
        {
          "indexed": true,
          "internalType": "uint256",
          "name": "slipId",
          "type": "uint256"
        }
      ],
      "name": "SlipPlaced",
      "type": "event"
    },
    {
      "anonymous": false,
      "inputs": [
        {
          "indexed": true,
          "internalType": "address",
          "name": "user",
          "type": "address"
        },
        {
          "indexed": false,
          "internalType": "uint256",
          "name": "totalSlips",
          "type": "uint256"
        },
        {
          "indexed": false,
          "internalType": "uint256",
          "name": "totalWins",
          "type": "uint256"
        },
        {
          "indexed": false,
          "internalType": "uint256",
          "name": "bestScore",
          "type": "uint256"
        },
        {
          "indexed": false,
          "internalType": "uint256",
          "name": "winRate",
          "type": "uint256"
        }
      ],
      "name": "UserStatsUpdated",
      "type": "event"
    },
    {
      "inputs": [],
      "name": "DAILY_LEADERBOARD_SIZE",
      "outputs": [
        {
          "internalType": "uint256",
          "name": "",
          "type": "uint256"
        }
      ],
      "stateMutability": "view",
      "type": "function"
    },
    {
      "inputs": [],
      "name": "DEV_FEE_PERCENTAGE",
      "outputs": [
        {
          "internalType": "uint256",
          "name": "",
          "type": "uint256"
        }
      ],
      "stateMutability": "view",
      "type": "function"
    },
    {
      "inputs": [],
      "name": "MATCH_COUNT",
      "outputs": [
        {
          "internalType": "uint256",
          "name": "",
          "type": "uint256"
        }
      ],
      "stateMutability": "view",
      "type": "function"
    },
    {
      "inputs": [],
      "name": "MAX_CYCLES_TO_RESOLVE",
      "outputs": [
        {
          "internalType": "uint256",
          "name": "",
          "type": "uint256"
        }
      ],
      "stateMutability": "view",
      "type": "function"
    },
    {
      "inputs": [],
      "name": "MIN_CORRECT_PREDICTIONS",
      "outputs": [
        {
          "internalType": "uint256",
          "name": "",
          "type": "uint256"
        }
      ],
      "stateMutability": "view",
      "type": "function"
    },
    {
      "inputs": [],
      "name": "ODDS_SCALING_FACTOR",
      "outputs": [
        {
          "internalType": "uint256",
          "name": "",
          "type": "uint256"
        }
      ],
      "stateMutability": "view",
      "type": "function"
    },
    {
      "inputs": [],
      "name": "PRIZE_ROLLOVER_FEE_PERCENTAGE",
      "outputs": [
        {
          "internalType": "uint256",
          "name": "",
          "type": "uint256"
        }
      ],
      "stateMutability": "view",
      "type": "function"
    },
    {
      "inputs": [
        {
          "internalType": "uint256[]",
          "name": "_cycleIds",
          "type": "uint256[]"
        }
      ],
      "name": "claimMultiplePrizes",
      "outputs": [],
      "stateMutability": "nonpayable",
      "type": "function"
    },
    {
      "inputs": [
        {
          "internalType": "uint256",
          "name": "_cycleId",
          "type": "uint256"
        }
      ],
      "name": "claimPrize",
      "outputs": [],
      "stateMutability": "nonpayable",
      "type": "function"
    },
    {
      "inputs": [
        {
          "internalType": "uint256",
          "name": "",
          "type": "uint256"
        }
      ],
      "name": "claimableStartTimes",
      "outputs": [
        {
          "internalType": "uint256",
          "name": "",
          "type": "uint256"
        }
      ],
      "stateMutability": "view",
      "type": "function"
    },
    {
      "inputs": [
        {
          "internalType": "uint256",
          "name": "",
          "type": "uint256"
        }
      ],
      "name": "cycleInfo",
      "outputs": [
        {
          "internalType": "uint256",
          "name": "startTime",
          "type": "uint256"
        },
        {
          "internalType": "uint256",
          "name": "endTime",
          "type": "uint256"
        },
        {
          "internalType": "uint256",
          "name": "prizePool",
          "type": "uint256"
        },
        {
          "internalType": "uint32",
          "name": "slipCount",
          "type": "uint32"
        },
        {
          "internalType": "uint32",
          "name": "evaluatedSlips",
          "type": "uint32"
        },
        {
          "internalType": "enum Oddyssey.CycleState",
          "name": "state",
          "type": "uint8"
        },
        {
          "internalType": "bool",
          "name": "hasWinner",
          "type": "bool"
        }
      ],
      "stateMutability": "view",
      "type": "function"
    },
    {
      "inputs": [
        {
          "internalType": "uint256",
          "name": "",
          "type": "uint256"
        }
      ],
      "name": "cycleStats",
      "outputs": [
        {
          "internalType": "uint256",
          "name": "volume",
          "type": "uint256"
        },
        {
          "internalType": "uint32",
          "name": "slips",
          "type": "uint32"
        },
        {
          "internalType": "uint32",
          "name": "evaluatedSlips",
          "type": "uint32"
        }
      ],
      "stateMutability": "view",
      "type": "function"
    },
    {
      "inputs": [
        {
          "internalType": "uint256",
          "name": "",
          "type": "uint256"
        }
      ],
      "name": "dailyCycleEndTimes",
      "outputs": [
        {
          "internalType": "uint256",
          "name": "",
          "type": "uint256"
        }
      ],
      "stateMutability": "view",
      "type": "function"
    },
    {
      "inputs": [],
      "name": "dailyCycleId",
      "outputs": [
        {
          "internalType": "uint256",
          "name": "",
          "type": "uint256"
        }
      ],
      "stateMutability": "view",
      "type": "function"
    },
    {
      "inputs": [
        {
          "internalType": "uint256",
          "name": "",
          "type": "uint256"
        },
        {
          "internalType": "uint256",
          "name": "",
          "type": "uint256"
        }
      ],
      "name": "dailyLeaderboards",
      "outputs": [
        {
          "internalType": "address",
          "name": "player",
          "type": "address"
        },
        {
          "internalType": "uint256",
          "name": "slipId",
          "type": "uint256"
        },
        {
          "internalType": "uint256",
          "name": "finalScore",
          "type": "uint256"
        },
        {
          "internalType": "uint8",
          "name": "correctCount",
          "type": "uint8"
        }
      ],
      "stateMutability": "view",
      "type": "function"
    },
    {
      "inputs": [
        {
          "internalType": "uint256",
          "name": "",
          "type": "uint256"
        },
        {
          "internalType": "uint256",
          "name": "",
          "type": "uint256"
        }
      ],
      "name": "dailyMatches",
      "outputs": [
        {
          "internalType": "uint64",
          "name": "id",
          "type": "uint64"
        },
        {
          "internalType": "uint64",
          "name": "startTime",
          "type": "uint64"
        },
        {
          "internalType": "uint32",
          "name": "oddsHome",
          "type": "uint32"
        },
        {
          "internalType": "uint32",
          "name": "oddsDraw",
          "type": "uint32"
        },
        {
          "internalType": "uint32",
          "name": "oddsAway",
          "type": "uint32"
        },
        {
          "internalType": "uint32",
          "name": "oddsOver",
          "type": "uint32"
        },
        {
          "internalType": "uint32",
          "name": "oddsUnder",
          "type": "uint32"
        },
        {
          "internalType": "string",
          "name": "homeTeam",
          "type": "string"
        },
        {
          "internalType": "string",
          "name": "awayTeam",
          "type": "string"
        },
        {
          "internalType": "string",
          "name": "leagueName",
          "type": "string"
        },
        {
          "components": [
            {
              "internalType": "enum Oddyssey.MoneylineResult",
              "name": "moneyline",
              "type": "uint8"
            },
            {
              "internalType": "enum Oddyssey.OverUnderResult",
              "name": "overUnder",
              "type": "uint8"
            }
          ],
          "internalType": "struct Oddyssey.Result",
          "name": "result",
          "type": "tuple"
        }
      ],
      "stateMutability": "view",
      "type": "function"
    },
    {
      "inputs": [
        {
          "internalType": "uint256",
          "name": "",
          "type": "uint256"
        }
      ],
      "name": "dailyPrizePools",
      "outputs": [
        {
          "internalType": "uint256",
          "name": "",
          "type": "uint256"
        }
      ],
      "stateMutability": "view",
      "type": "function"
    },
    {
      "inputs": [],
      "name": "devWallet",
      "outputs": [
        {
          "internalType": "address",
          "name": "",
          "type": "address"
        }
      ],
      "stateMutability": "view",
      "type": "function"
    },
    {
      "inputs": [],
      "name": "enhancedReputationSystem",
      "outputs": [
        {
          "internalType": "contract IEnhancedReputationSystem",
          "name": "",
          "type": "address"
        }
      ],
      "stateMutability": "view",
      "type": "function"
    },
    {
      "inputs": [],
      "name": "entryFee",
      "outputs": [
        {
          "internalType": "uint256",
          "name": "",
          "type": "uint256"
        }
      ],
      "stateMutability": "view",
      "type": "function"
    },
    {
      "inputs": [
        {
          "internalType": "uint256[]",
          "name": "_slipIds",
          "type": "uint256[]"
        }
      ],
      "name": "evaluateMultipleSlips",
      "outputs": [],
      "stateMutability": "nonpayable",
      "type": "function"
    },
    {
      "inputs": [
        {
          "internalType": "uint256",
          "name": "_slipId",
          "type": "uint256"
        }
      ],
      "name": "evaluateSlip",
      "outputs": [],
      "stateMutability": "nonpayable",
      "type": "function"
    },
    {
      "inputs": [
        {
          "internalType": "uint256[]",
          "name": "_slipIds",
          "type": "uint256[]"
        }
      ],
      "name": "getBatchSlips",
      "outputs": [
        {
          "components": [
            {
              "internalType": "address",
              "name": "player",
              "type": "address"
            },
            {
              "internalType": "uint256",
              "name": "cycleId",
              "type": "uint256"
            },
            {
              "internalType": "uint256",
              "name": "placedAt",
              "type": "uint256"
            },
            {
              "components": [
                {
                  "internalType": "uint64",
                  "name": "matchId",
                  "type": "uint64"
                },
                {
                  "internalType": "enum Oddyssey.BetType",
                  "name": "betType",
                  "type": "uint8"
                },
                {
                  "internalType": "string",
                  "name": "selection",
                  "type": "string"
                },
                {
                  "internalType": "uint32",
                  "name": "selectedOdd",
                  "type": "uint32"
                },
                {
                  "internalType": "string",
                  "name": "homeTeam",
                  "type": "string"
                },
                {
                  "internalType": "string",
                  "name": "awayTeam",
                  "type": "string"
                },
                {
                  "internalType": "string",
                  "name": "leagueName",
                  "type": "string"
                }
              ],
              "internalType": "struct Oddyssey.UserPrediction[10]",
              "name": "predictions",
              "type": "tuple[10]"
            },
            {
              "internalType": "uint256",
              "name": "finalScore",
              "type": "uint256"
            },
            {
              "internalType": "uint8",
              "name": "correctCount",
              "type": "uint8"
            },
            {
              "internalType": "bool",
              "name": "isEvaluated",
              "type": "bool"
            }
          ],
          "internalType": "struct Oddyssey.Slip[]",
          "name": "",
          "type": "tuple[]"
        }
      ],
      "stateMutability": "view",
      "type": "function"
    },
    {
      "inputs": [],
      "name": "getCurrentCycle",
      "outputs": [
        {
          "internalType": "uint256",
          "name": "",
          "type": "uint256"
        }
      ],
      "stateMutability": "view",
      "type": "function"
    },
    {
      "inputs": [],
      "name": "getCurrentCycleInfo",
      "outputs": [
        {
          "internalType": "uint256",
          "name": "cycleId",
          "type": "uint256"
        },
        {
          "internalType": "uint8",
          "name": "state",
          "type": "uint8"
        },
        {
          "internalType": "uint256",
          "name": "endTime",
          "type": "uint256"
        },
        {
          "internalType": "uint256",
          "name": "prizePool",
          "type": "uint256"
        },
        {
          "internalType": "uint32",
          "name": "cycleSlipCount",
          "type": "uint32"
        }
      ],
      "stateMutability": "view",
      "type": "function"
    },
    {
      "inputs": [
        {
          "internalType": "uint256",
          "name": "_cycleId",
          "type": "uint256"
        }
      ],
      "name": "getCycleMatches",
      "outputs": [
        {
          "components": [
            {
              "internalType": "uint64",
              "name": "id",
              "type": "uint64"
            },
            {
              "internalType": "uint64",
              "name": "startTime",
              "type": "uint64"
            },
            {
              "internalType": "uint32",
              "name": "oddsHome",
              "type": "uint32"
            },
            {
              "internalType": "uint32",
              "name": "oddsDraw",
              "type": "uint32"
            },
            {
              "internalType": "uint32",
              "name": "oddsAway",
              "type": "uint32"
            },
            {
              "internalType": "uint32",
              "name": "oddsOver",
              "type": "uint32"
            },
            {
              "internalType": "uint32",
              "name": "oddsUnder",
              "type": "uint32"
            },
            {
              "internalType": "string",
              "name": "homeTeam",
              "type": "string"
            },
            {
              "internalType": "string",
              "name": "awayTeam",
              "type": "string"
            },
            {
              "internalType": "string",
              "name": "leagueName",
              "type": "string"
            },
            {
              "components": [
                {
                  "internalType": "enum Oddyssey.MoneylineResult",
                  "name": "moneyline",
                  "type": "uint8"
                },
                {
                  "internalType": "enum Oddyssey.OverUnderResult",
                  "name": "overUnder",
                  "type": "uint8"
                }
              ],
              "internalType": "struct Oddyssey.Result",
              "name": "result",
              "type": "tuple"
            }
          ],
          "internalType": "struct Oddyssey.Match[10]",
          "name": "",
          "type": "tuple[10]"
        }
      ],
      "stateMutability": "view",
      "type": "function"
    },
    {
      "inputs": [
        {
          "internalType": "uint256",
          "name": "_cycleId",
          "type": "uint256"
        }
      ],
      "name": "getCycleStatus",
      "outputs": [
        {
          "internalType": "bool",
          "name": "exists",
          "type": "bool"
        },
        {
          "internalType": "uint8",
          "name": "state",
          "type": "uint8"
        },
        {
          "internalType": "uint256",
          "name": "endTime",
          "type": "uint256"
        },
        {
          "internalType": "uint256",
          "name": "prizePool",
          "type": "uint256"
        },
        {
          "internalType": "uint32",
          "name": "cycleSlipCount",
          "type": "uint32"
        },
        {
          "internalType": "bool",
          "name": "hasWinner",
          "type": "bool"
        }
      ],
      "stateMutability": "view",
      "type": "function"
    },
    {
      "inputs": [
        {
          "internalType": "uint256",
          "name": "_cycleId",
          "type": "uint256"
        }
      ],
      "name": "getDailyLeaderboard",
      "outputs": [
        {
          "components": [
            {
              "internalType": "address",
              "name": "player",
              "type": "address"
            },
            {
              "internalType": "uint256",
              "name": "slipId",
              "type": "uint256"
            },
            {
              "internalType": "uint256",
              "name": "finalScore",
              "type": "uint256"
            },
            {
              "internalType": "uint8",
              "name": "correctCount",
              "type": "uint8"
            }
          ],
          "internalType": "struct Oddyssey.LeaderboardEntry[5]",
          "name": "",
          "type": "tuple[5]"
        }
      ],
      "stateMutability": "view",
      "type": "function"
    },
    {
      "inputs": [
        {
          "internalType": "uint256",
          "name": "_cycleId",
          "type": "uint256"
        }
      ],
      "name": "getDailyMatches",
      "outputs": [
        {
          "components": [
            {
              "internalType": "uint64",
              "name": "id",
              "type": "uint64"
            },
            {
              "internalType": "uint64",
              "name": "startTime",
              "type": "uint64"
            },
            {
              "internalType": "uint32",
              "name": "oddsHome",
              "type": "uint32"
            },
            {
              "internalType": "uint32",
              "name": "oddsDraw",
              "type": "uint32"
            },
            {
              "internalType": "uint32",
              "name": "oddsAway",
              "type": "uint32"
            },
            {
              "internalType": "uint32",
              "name": "oddsOver",
              "type": "uint32"
            },
            {
              "internalType": "uint32",
              "name": "oddsUnder",
              "type": "uint32"
            },
            {
              "internalType": "string",
              "name": "homeTeam",
              "type": "string"
            },
            {
              "internalType": "string",
              "name": "awayTeam",
              "type": "string"
            },
            {
              "internalType": "string",
              "name": "leagueName",
              "type": "string"
            },
            {
              "components": [
                {
                  "internalType": "enum Oddyssey.MoneylineResult",
                  "name": "moneyline",
                  "type": "uint8"
                },
                {
                  "internalType": "enum Oddyssey.OverUnderResult",
                  "name": "overUnder",
                  "type": "uint8"
                }
              ],
              "internalType": "struct Oddyssey.Result",
              "name": "result",
              "type": "tuple"
            }
          ],
          "internalType": "struct Oddyssey.Match[10]",
          "name": "",
          "type": "tuple[10]"
        }
      ],
      "stateMutability": "view",
      "type": "function"
    },
    {
      "inputs": [
        {
          "internalType": "uint256",
          "name": "_slipId",
          "type": "uint256"
        }
      ],
      "name": "getSlip",
      "outputs": [
        {
          "components": [
            {
              "internalType": "address",
              "name": "player",
              "type": "address"
            },
            {
              "internalType": "uint256",
              "name": "cycleId",
              "type": "uint256"
            },
            {
              "internalType": "uint256",
              "name": "placedAt",
              "type": "uint256"
            },
            {
              "components": [
                {
                  "internalType": "uint64",
                  "name": "matchId",
                  "type": "uint64"
                },
                {
                  "internalType": "enum Oddyssey.BetType",
                  "name": "betType",
                  "type": "uint8"
                },
                {
                  "internalType": "string",
                  "name": "selection",
                  "type": "string"
                },
                {
                  "internalType": "uint32",
                  "name": "selectedOdd",
                  "type": "uint32"
                },
                {
                  "internalType": "string",
                  "name": "homeTeam",
                  "type": "string"
                },
                {
                  "internalType": "string",
                  "name": "awayTeam",
                  "type": "string"
                },
                {
                  "internalType": "string",
                  "name": "leagueName",
                  "type": "string"
                }
              ],
              "internalType": "struct Oddyssey.UserPrediction[10]",
              "name": "predictions",
              "type": "tuple[10]"
            },
            {
              "internalType": "uint256",
              "name": "finalScore",
              "type": "uint256"
            },
            {
              "internalType": "uint8",
              "name": "correctCount",
              "type": "uint8"
            },
            {
              "internalType": "bool",
              "name": "isEvaluated",
              "type": "bool"
            }
          ],
          "internalType": "struct Oddyssey.Slip",
          "name": "",
          "type": "tuple"
        }
      ],
      "stateMutability": "view",
      "type": "function"
    },
    {
      "inputs": [
        {
          "internalType": "address",
          "name": "_user",
          "type": "address"
        }
      ],
      "name": "getUserData",
      "outputs": [
        {
          "components": [
            {
              "internalType": "uint256",
              "name": "totalSlips",
              "type": "uint256"
            },
            {
              "internalType": "uint256",
              "name": "totalWins",
              "type": "uint256"
            },
            {
              "internalType": "uint256",
              "name": "bestScore",
              "type": "uint256"
            },
            {
              "internalType": "uint256",
              "name": "averageScore",
              "type": "uint256"
            },
            {
              "internalType": "uint256",
              "name": "winRate",
              "type": "uint256"
            },
            {
              "internalType": "uint256",
              "name": "currentStreak",
              "type": "uint256"
            },
            {
              "internalType": "uint256",
              "name": "bestStreak",
              "type": "uint256"
            },
            {
              "internalType": "uint256",
              "name": "lastActiveCycle",
              "type": "uint256"
            }
          ],
          "internalType": "struct Oddyssey.UserStats",
          "name": "userStatsData",
          "type": "tuple"
        },
        {
          "internalType": "uint256",
          "name": "reputation",
          "type": "uint256"
        },
        {
          "internalType": "uint256",
          "name": "correctPredictions",
          "type": "uint256"
        }
      ],
      "stateMutability": "view",
      "type": "function"
    },
    {
      "inputs": [
        {
          "internalType": "address",
          "name": "_user",
          "type": "address"
        }
      ],
      "name": "getUserSlipCount",
      "outputs": [
        {
          "internalType": "uint256",
          "name": "",
          "type": "uint256"
        }
      ],
      "stateMutability": "view",
      "type": "function"
    },
    {
      "inputs": [
        {
          "internalType": "address",
          "name": "_user",
          "type": "address"
        },
        {
          "internalType": "uint256",
          "name": "_cycleId",
          "type": "uint256"
        }
      ],
      "name": "getUserSlipsForCycle",
      "outputs": [
        {
          "internalType": "uint256[]",
          "name": "",
          "type": "uint256[]"
        }
      ],
      "stateMutability": "view",
      "type": "function"
    },
    {
      "inputs": [
        {
          "internalType": "address",
          "name": "_user",
          "type": "address"
        },
        {
          "internalType": "uint256",
          "name": "_cycleId",
          "type": "uint256"
        }
      ],
      "name": "getUserSlipsWithData",
      "outputs": [
        {
          "internalType": "uint256[]",
          "name": "slipIds",
          "type": "uint256[]"
        },
        {
          "components": [
            {
              "internalType": "address",
              "name": "player",
              "type": "address"
            },
            {
              "internalType": "uint256",
              "name": "cycleId",
              "type": "uint256"
            },
            {
              "internalType": "uint256",
              "name": "placedAt",
              "type": "uint256"
            },
            {
              "components": [
                {
                  "internalType": "uint64",
                  "name": "matchId",
                  "type": "uint64"
                },
                {
                  "internalType": "enum Oddyssey.BetType",
                  "name": "betType",
                  "type": "uint8"
                },
                {
                  "internalType": "string",
                  "name": "selection",
                  "type": "string"
                },
                {
                  "internalType": "uint32",
                  "name": "selectedOdd",
                  "type": "uint32"
                },
                {
                  "internalType": "string",
                  "name": "homeTeam",
                  "type": "string"
                },
                {
                  "internalType": "string",
                  "name": "awayTeam",
                  "type": "string"
                },
                {
                  "internalType": "string",
                  "name": "leagueName",
                  "type": "string"
                }
              ],
              "internalType": "struct Oddyssey.UserPrediction[10]",
              "name": "predictions",
              "type": "tuple[10]"
            },
            {
              "internalType": "uint256",
              "name": "finalScore",
              "type": "uint256"
            },
            {
              "internalType": "uint8",
              "name": "correctCount",
              "type": "uint8"
            },
            {
              "internalType": "bool",
              "name": "isEvaluated",
              "type": "bool"
            }
          ],
          "internalType": "struct Oddyssey.Slip[]",
          "name": "slipsData",
          "type": "tuple[]"
        }
      ],
      "stateMutability": "view",
      "type": "function"
    },
    {
      "inputs": [
        {
          "internalType": "uint256",
          "name": "_cycleId",
          "type": "uint256"
        }
      ],
      "name": "isCycleInitialized",
      "outputs": [
        {
          "internalType": "bool",
          "name": "",
          "type": "bool"
        }
      ],
      "stateMutability": "view",
      "type": "function"
    },
    {
      "inputs": [
        {
          "internalType": "uint256",
          "name": "",
          "type": "uint256"
        }
      ],
      "name": "isCycleResolved",
      "outputs": [
        {
          "internalType": "bool",
          "name": "",
          "type": "bool"
        }
      ],
      "stateMutability": "view",
      "type": "function"
    },
    {
      "inputs": [],
      "name": "oracle",
      "outputs": [
        {
          "internalType": "address",
          "name": "",
          "type": "address"
        }
      ],
      "stateMutability": "view",
      "type": "function"
    },
    {
      "inputs": [],
      "name": "owner",
      "outputs": [
        {
          "internalType": "address",
          "name": "",
          "type": "address"
        }
      ],
      "stateMutability": "view",
      "type": "function"
    },
    {
      "inputs": [
        {
          "components": [
            {
              "internalType": "uint64",
              "name": "matchId",
              "type": "uint64"
            },
            {
              "internalType": "enum Oddyssey.BetType",
              "name": "betType",
              "type": "uint8"
            },
            {
              "internalType": "string",
              "name": "selection",
              "type": "string"
            },
            {
              "internalType": "uint32",
              "name": "selectedOdd",
              "type": "uint32"
            },
            {
              "internalType": "string",
              "name": "homeTeam",
              "type": "string"
            },
            {
              "internalType": "string",
              "name": "awayTeam",
              "type": "string"
            },
            {
              "internalType": "string",
              "name": "leagueName",
              "type": "string"
            }
          ],
          "internalType": "struct Oddyssey.UserPrediction[10]",
          "name": "_predictions",
          "type": "tuple[10]"
        }
      ],
      "name": "placeSlip",
      "outputs": [],
      "stateMutability": "payable",
      "type": "function"
    },
    {
      "inputs": [
        {
          "internalType": "uint256",
          "name": "",
          "type": "uint256"
        },
        {
          "internalType": "uint8",
          "name": "",
          "type": "uint8"
        }
      ],
      "name": "prizeClaimed",
      "outputs": [
        {
          "internalType": "bool",
          "name": "",
          "type": "bool"
        }
      ],
      "stateMutability": "view",
      "type": "function"
    },
    {
      "inputs": [],
      "name": "renounceOwnership",
      "outputs": [],
      "stateMutability": "nonpayable",
      "type": "function"
    },
    {
      "inputs": [
        {
          "internalType": "uint256",
          "name": "_cycleId",
          "type": "uint256"
        },
        {
          "components": [
            {
              "internalType": "enum Oddyssey.MoneylineResult",
              "name": "moneyline",
              "type": "uint8"
            },
            {
              "internalType": "enum Oddyssey.OverUnderResult",
              "name": "overUnder",
              "type": "uint8"
            }
          ],
          "internalType": "struct Oddyssey.Result[10]",
          "name": "_results",
          "type": "tuple[10]"
        }
      ],
      "name": "resolveDailyCycle",
      "outputs": [],
      "stateMutability": "nonpayable",
      "type": "function"
    },
    {
      "inputs": [
        {
          "internalType": "uint256[]",
          "name": "_cycleIds",
          "type": "uint256[]"
        },
        {
          "components": [
            {
              "internalType": "enum Oddyssey.MoneylineResult",
              "name": "moneyline",
              "type": "uint8"
            },
            {
              "internalType": "enum Oddyssey.OverUnderResult",
              "name": "overUnder",
              "type": "uint8"
            }
          ],
          "internalType": "struct Oddyssey.Result[10][]",
          "name": "_results",
          "type": "tuple[10][]"
        }
      ],
      "name": "resolveMultipleCycles",
      "outputs": [],
      "stateMutability": "nonpayable",
      "type": "function"
    },
    {
      "inputs": [
        {
          "internalType": "address",
          "name": "_enhancedReputationSystem",
          "type": "address"
        }
      ],
      "name": "setEnhancedReputationSystem",
      "outputs": [],
      "stateMutability": "nonpayable",
      "type": "function"
    },
    {
      "inputs": [
        {
          "internalType": "uint256",
          "name": "_newFee",
          "type": "uint256"
        }
      ],
      "name": "setEntryFee",
      "outputs": [],
      "stateMutability": "nonpayable",
      "type": "function"
    },
    {
      "inputs": [
        {
          "internalType": "address",
          "name": "_newOracle",
          "type": "address"
        }
      ],
      "name": "setOracle",
      "outputs": [],
      "stateMutability": "nonpayable",
      "type": "function"
    },
    {
      "inputs": [],
      "name": "slipCount",
      "outputs": [
        {
          "internalType": "uint256",
          "name": "",
          "type": "uint256"
        }
      ],
      "stateMutability": "view",
      "type": "function"
    },
    {
      "inputs": [
        {
          "internalType": "uint256",
          "name": "",
          "type": "uint256"
        }
      ],
      "name": "slips",
      "outputs": [
        {
          "internalType": "address",
          "name": "player",
          "type": "address"
        },
        {
          "internalType": "uint256",
          "name": "cycleId",
          "type": "uint256"
        },
        {
          "internalType": "uint256",
          "name": "placedAt",
          "type": "uint256"
        },
        {
          "internalType": "uint256",
          "name": "finalScore",
          "type": "uint256"
        },
        {
          "internalType": "uint8",
          "name": "correctCount",
          "type": "uint8"
        },
        {
          "internalType": "bool",
          "name": "isEvaluated",
          "type": "bool"
        }
      ],
      "stateMutability": "view",
      "type": "function"
    },
    {
      "inputs": [
        {
          "components": [
            {
              "internalType": "uint64",
              "name": "id",
              "type": "uint64"
            },
            {
              "internalType": "uint64",
              "name": "startTime",
              "type": "uint64"
            },
            {
              "internalType": "uint32",
              "name": "oddsHome",
              "type": "uint32"
            },
            {
              "internalType": "uint32",
              "name": "oddsDraw",
              "type": "uint32"
            },
            {
              "internalType": "uint32",
              "name": "oddsAway",
              "type": "uint32"
            },
            {
              "internalType": "uint32",
              "name": "oddsOver",
              "type": "uint32"
            },
            {
              "internalType": "uint32",
              "name": "oddsUnder",
              "type": "uint32"
            },
            {
              "internalType": "string",
              "name": "homeTeam",
              "type": "string"
            },
            {
              "internalType": "string",
              "name": "awayTeam",
              "type": "string"
            },
            {
              "internalType": "string",
              "name": "leagueName",
              "type": "string"
            },
            {
              "components": [
                {
                  "internalType": "enum Oddyssey.MoneylineResult",
                  "name": "moneyline",
                  "type": "uint8"
                },
                {
                  "internalType": "enum Oddyssey.OverUnderResult",
                  "name": "overUnder",
                  "type": "uint8"
                }
              ],
              "internalType": "struct Oddyssey.Result",
              "name": "result",
              "type": "tuple"
            }
          ],
          "internalType": "struct Oddyssey.Match[10]",
          "name": "_matches",
          "type": "tuple[10]"
        }
      ],
      "name": "startDailyCycle",
      "outputs": [],
      "stateMutability": "nonpayable",
      "type": "function"
    },
    {
      "inputs": [],
      "name": "stats",
      "outputs": [
        {
          "internalType": "uint256",
          "name": "totalVolume",
          "type": "uint256"
        },
        {
          "internalType": "uint32",
          "name": "totalSlips",
          "type": "uint32"
        },
        {
          "internalType": "uint256",
          "name": "highestOdd",
          "type": "uint256"
        }
      ],
      "stateMutability": "view",
      "type": "function"
    },
    {
      "inputs": [
        {
          "internalType": "address",
          "name": "newOwner",
          "type": "address"
        }
      ],
      "name": "transferOwnership",
      "outputs": [],
      "stateMutability": "nonpayable",
      "type": "function"
    },
    {
      "inputs": [
        {
          "internalType": "address",
          "name": "",
          "type": "address"
        }
      ],
      "name": "userOddysseyCorrectPredictions",
      "outputs": [
        {
          "internalType": "uint256",
          "name": "",
          "type": "uint256"
        }
      ],
      "stateMutability": "view",
      "type": "function"
    },
    {
      "inputs": [
        {
          "internalType": "address",
          "name": "",
          "type": "address"
        }
      ],
      "name": "userOddysseyReputation",
      "outputs": [
        {
          "internalType": "uint256",
          "name": "",
          "type": "uint256"
        }
      ],
      "stateMutability": "view",
      "type": "function"
    },
    {
      "inputs": [
        {
          "internalType": "address",
          "name": "",
          "type": "address"
        }
      ],
      "name": "userStats",
      "outputs": [
        {
          "internalType": "uint256",
          "name": "totalSlips",
          "type": "uint256"
        },
        {
          "internalType": "uint256",
          "name": "totalWins",
          "type": "uint256"
        },
        {
          "internalType": "uint256",
          "name": "bestScore",
          "type": "uint256"
        },
        {
          "internalType": "uint256",
          "name": "averageScore",
          "type": "uint256"
        },
        {
          "internalType": "uint256",
          "name": "winRate",
          "type": "uint256"
        },
        {
          "internalType": "uint256",
          "name": "currentStreak",
          "type": "uint256"
        },
        {
          "internalType": "uint256",
          "name": "bestStreak",
          "type": "uint256"
        },
        {
          "internalType": "uint256",
          "name": "lastActiveCycle",
          "type": "uint256"
        }
      ],
      "stateMutability": "view",
      "type": "function"
    }
  ],
  "bytecode": "0x60e0346200015b5762004e0590601f38839003908101601f19168201906001600160401b038211838310176200016057808391604095869485528339810103126200015b5780516001600160a01b03808216929091908382036200015b576020015191331562000143576000549360018060a01b03199433868216176000558651923391167f8be0079c531659141344cd1fd0a4f28419497f9722a3daafe3b4186f6b6457e0600080a360018055156200013457506706f05b59d3b200008203620001235760c052600355339060025416176002556101f48060805260a05251614c8e908162000177823960805181818161142101526142d0015260a0518181816114e20152614a30015260c0518181816116e7015281816143000152614a960152f35b835163b4fa3fb360e01b8152600490fd5b63b4fa3fb360e01b8152600490fd5b8451631e4fbdf760e01b815260006004820152602490fd5b600080fd5b634e487b7160e01b600052604160045260246000fdfe6080604052600436101561001257600080fd5b60003560e01c806302c009ef14612f3b578063042db2e61461079257806305b61d1114612f1d578063072ea61c14612eff5780630832275e14612db757806314bd964414612d9b57806317ee395b14612d505780631e7e465f14612c0b5780632012ef03146129ad578063210d5f5f146129825780632ac5df9314612956578063328621a6146127c5578063361a97921461275557806344f79609146126d45780634c3b1939146126905780634f4bc86e146126565780635052617d1461263a578063590d0f991461261d5780635932ec0a14611ab2578063625d9ce514611a965780636977f54614611a6e578063715018a614611a1557806373d225731461197b578063745be5761461194f5780637adbf973146118da5780637d208cee146118a05780637dc0d1d0146118775780637e12170d1461182e57806383660217146117c65780638a65d8741461173f5780638da5cb5b146117165780638ea5220f146116d157806391230fa31461168e5780639ad7884c1461163a5780639bea95ac14611609578063a1ce7ecb14611505578063a4957efe146114ca578063af9b2bfb14611444578063b0dbf47d14611409578063ba1487ad146110e8578063ba61ebde146107b0578063be26ed7f14610792578063c503b251146106ee578063c56a00de1461067d578063c6b6850814610643578063c81b986c14610568578063ccb0b3c31461053f578063d709815414610515578063d80528ae146104e0578063e734e60c146104b4578063eb770d0c14610443578063f2fde38b146103b5578063fbb0de53146103995763ffc9896b1461026e57600080fd5b3461039457602080600319360112610394576101409061028c613b96565b600060e060405161029c816139da565b82815282858201528260408201528260608201528260808201528260a08201528260c0820152015260018060a01b0316600052600781526040600020600882526040600020546009835260406000205491604051906102fa826139da565b805494858352600182015490808401918252600283015460408501908152600384015490606086019182526004850154926080870193845260058601549460a0880195865260e0600760068901549860c08b01998a52015498019788526040519a8b5251908a01525160408901525160608801525160808701525160a08601525160c08501525160e0840152610100830152610120820152f35b600080fd5b3461039457600036600319011261039457602060405160078152f35b34610394576020366003190112610394576103ce613b96565b6103d6613e44565b6001600160a01b0390811690811561042a57600054826bffffffffffffffffffffffff60a01b821617600055167f8be0079c531659141344cd1fd0a4f28419497f9722a3daafe3b4186f6b6457e0600080a3005b604051631e4fbdf760e01b815260006004820152602490fd5b346103945760203660031901126103945760043561045f613e44565b6706f05b59d3b2000081036104a25760035481146104a257806003557f565a4bfd76b3419546eefb0f3228d436837362a9b57e0c3a03227225dfec023d600080a2005b60405163b4fa3fb360e01b8152600490fd5b3461039457602036600319011261039457600435600052600c6020526020604060002054604051908152f35b3461039457600036600319011261039457606060165463ffffffff601754166018549060405192835260208301526040820152f35b346103945760203660031901126103945761052e61410a565b61053960043561420d565b60018055005b34610394576000366003190112610394576006546040516001600160a01b039091168152602090f35b3461039457602080600319360112610394576105826144d2565b5060043560005260108152604060002090604051916105a083613974565b80546001600160a01b0316835260018181015483850152600282015460408086019190915251906105d08261398f565b60038301600085845b600a831061062557888260ff60408a8a6060860152603f8101546080860152015481811660a085015260081c16151560c08301526106216040519282849384528301906137bf565b0390f35b84916006916106338661412d565b81520193019101909186906105d9565b34610394576020366003190112610394576001600160a01b03610664613b96565b1660005260086020526020604060002054604051908152f35b34610394576020806003193601126103945761069761443a565b50600435600052600a808252604060002090604051916106b68361398f565b92600090835b8383106106d157604051806106218782613a9b565b6006826001926106e089613ef5565b8152019601920191946106bc565b34610394576020366003190112610394576004356001600160401b0381116103945761071e903690600401613de6565b60005b8151811015610790576107348183613ee1565b5190303b1561039457604051916335c2605560e21b8352600483015260008260248183305af19182156107845761077092610775575b50613e70565b610721565b61077e906139ab565b8361076a565b6040513d6000823e3d90fd5b005b34610394576000366003190112610394576020600454604051908152f35b346103945760031960203682011261039457600435906001600160401b038211610394573660238301121561039457604051916107ec8361398f565b8261014490818301923684116103945780600401915b848310610fa95760025487906001600160a01b03163303610f98576001600160401b039060009161012c420192834211905b600a8082101561098d576108488286613e7f565b516001600160401b038151161561097b576020810191846001600160401b0384511690610928578810156109695763ffffffff8060408401511615801561095b575b801561094d575b6104a2578060a0840151161590811561093e575b506104a25760018401808511610928575b8181106108f5575050506001600160401b039051166001600160401b03841681106108eb575b506108e690613e70565b610834565b92506108e66108dc565b6001600160401b038351166001600160401b03610912838b613e7f565b515116146104a25761092390613e70565b6108b6565b634e487b7160e01b600052601160045260246000fd5b905060c08301511615896108a5565b508060808401511615610891565b50806060840151161561088a565b60405163c8b9bc9160e01b8152600490fd5b604051635a26d5fd60e11b8152600490fd5b84868585610928576001600160401b031690811115610969576109b1600454613e70565b91826004556000198301838111610928576109cb906149d4565b6001600160401b0361012b19830111610928576000838152600a60205260408120915b600a8210610b4257847f62eeb403dc233a7676f50cdb0fd72dae595aeb7c63039adce5caacc33254f9c060206001600160401b038784600052600b835261012b19011680604060002055600c825260001960406000205560148252604060002060ff198154169055604051610a6281613974565b4281528281018281526040820160008152610af46060840160008152600360808601956000875260a08101946001865260c0820196600088528c600052600f8b52604060002092518355516001830155516002820155019463ffffffff8092511663ffffffff198754161786555116849067ffffffff0000000082549160201b169067ffffffff000000001916179055565b5190610aff82613a6f565b610b0882613a6f565b60ff60401b69ff00000000000000000084549251151560481b169260401b169069ffff0000000000000000191617179055604051908152a2005b80516001600160401b038151166fffffffffffffffff0000000000000000602083015160401b1690604083015160608401516080808601519260a09163ffffffff60e01b8389015160e01b169560c097179163ffffffff60801b911b16179163ffffffff60a01b911b16179063ffffffff60c01b90841b161717855563ffffffff60018601918301511663ffffffff1982541617905560e08101518051906001600160401b038211610e1e578190610bfd6002880154613cbb565b601f8111610f63575b50602090601f8311600114610ef157600092610ee6575b50508160011b916000199060031b1c19161760028501555b6101008101518051906001600160401b038211610e1e578190610c5b6003880154613cbb565b601f8111610eb1575b50602090601f8311600114610e3f57600092610e34575b50508160011b916000199060031b1c19161760038501555b6101208101518051906001600160401b038211610e1e578190610cb96004880154613cbb565b601f8111610dde575b50602090601f8311600114610d6c57600092610d61575b50508160011b916000199060031b1c19161760048501555b61014001518051916005850190610d0784613a6f565b610d1084613a6f565b60208254930151916003831015610d4b5760019460069460ff61ff0060209660081b1692169061ffff191617179055019301910190916109ee565b634e487b7160e01b600052602160045260246000fd5b015190508880610cd9565b9250600487016000526020600020906000935b601f1984168510610dc3576001945083601f19811610610daa575b505050811b016004850155610cf1565b015160001960f88460031b161c19169055888080610d9a565b81810151835560209485019460019093019290910190610d7f565b610e0e906004890160005260206000206005601f8601811c82019260208710610e14575b601f01901c0190613ebd565b89610cc2565b9192508291610e02565b634e487b7160e01b600052604160045260246000fd5b015190508880610c7b565b9250600387016000526020600020906000935b601f1984168510610e96576001945083601f19811610610e7d575b505050811b016003850155610c93565b015160001960f88460031b161c19169055888080610e6d565b81810151835560209485019460019093019290910190610e52565b610ee0906003890160005260206000206005601f8601811c82019260208710610e1457601f01901c0190613ebd565b89610c64565b015190508880610c1d565b9250600287016000526020600020906000935b601f1984168510610f48576001945083601f19811610610f2f575b505050811b016002850155610c35565b015160001960f88460031b161c19169055888080610f1f565b81810151835560209485019460019093019290910190610f04565b610f92906002890160005260206000206005601f8601811c82019260208710610e1457601f01901c0190613ebd565b89610c06565b6040516282b42960e81b8152600490fd5b82356001600160401b0381116103945782016101808782360301126103945760405191610fd5836139be565b610fe160048301613be0565b8352610fef60248301613be0565b602084015261100060448301613c56565b604084015261101160648301613c56565b606084015261102260848301613c56565b608084015261103360a48301613c56565b60a084015261104460c48301613c56565b60c084015260e48201356001600160401b0381116103945761106c9060043691850101613c0f565b60e08401526101048201356001600160401b038111610394576110959060043691850101613c0f565b610100840152610124820135926001600160401b038411610394576110d7602094936110c8869560043691840101613c0f565b61012084015288369101613a32565b610140820152815201920191610802565b34610394576040366003190112610394576001600160401b0360043581811161039457611119903690600401613de6565b6024803592831161039457366023840112156103945782600401359061113e82613dcf565b9161114c6040519384613a11565b8083526020948584018361028080940283010191368311610394578401905b8282106113a45750506002546001600160a01b039250821633039050610f985783518351036104a25760328451116104a25760005b8451811015610790576111b38186613ee1565b516111be8286613ee1565b5183600254163303610f985781158015611399575b61097b5781600052600f8089526040600020541561097b5782600052885260406000206003808201928160ff855460401c1661120e81613a6f565b1461138757600180930154421115610969576000835b6112f1575b5050825460ff60401b1916600360401b17835550600083815260148a5260409020805460ff191690911790555463ffffffff166112b65790816112b192600052600c8852426040600020555b80600052600d88527fdd45cfbd9f2d20e6b7b6f5fa3148363d48017feae0c98de41ec4435a5aa7544688604060002054604051908152a2613e70565b6111a0565b6201518042018042116112dc57906112b1929181600052600c8952604060002055611275565b84634e487b7160e01b60005260116004526000fd5b600a80821015611381576113058284613e7f565b5190876000528d528c600561131e846040600020613ca7565b50019180519161132d83613a6f565b61133683613a6f565b83549101518681101561136c5791611366939160ff61ff008a979560081b1692169061ffff191617179055613e70565b90611224565b8c634e487b7160e01b60005260216004526000fd5b50611229565b60405163baf3f0f760e01b8152600490fd5b5060045482116111d3565b36601f83011215610394576040516113bb8161398f565b8285018136821161039457918693918b9386905b8282106113e45750505081520191019061116b565b6040929496506113f8959193953685613a32565b8152019101918794928c94926113cf565b346103945760003660031901126103945760206040517f00000000000000000000000000000000000000000000000000000000000000008152f35b34610394576020366003190112610394576004356001600160401b03811161039457611474903690600401613de6565b60005b81518110156107905761148a8183613ee1565b5190303b1561039457604051916302c009ef60e01b8352600483015260008260248183305af1918215610784576114c5926107755750613e70565b611477565b346103945760003660031901126103945760206040517f00000000000000000000000000000000000000000000000000000000000000008152f35b346103945761151336613c67565b90600052600a602052604060002090600a8110156103945761153491613ca7565b5080549063ffffffff906106216115fd83600184015416926115ee61155b60028301613cf5565b6115df61156a60038501613cf5565b91611583600561157c60048801613cf5565b9601613d9b565b976040519a8b9a6001600160401b038083168d528260401c1660208d0152808260801c1660408d0152808260a01c1660608d01528160c01c1660808c015260e01c60a08b015260c08a01526101808060e08b015289019061377f565b9087820361010089015261377f565b9085820361012087015261377f565b91610140840190613a79565b34610394576020366003190112610394576004356000526014602052602060ff604060002054166040519015158152f35b346103945760203660031901126103945760c060ff63ffffffff61165f600435614619565b9594969093604093929351971515885216602087015260408601526060850152166080830152151560a0820152f35b34610394576020366003190112610394576116a7613b96565b6116af613e44565b600680546001600160a01b0319166001600160a01b0392909216919091179055005b34610394576000366003190112610394576040517f00000000000000000000000000000000000000000000000000000000000000006001600160a01b03168152602090f35b34610394576000366003190112610394576000546040516001600160a01b039091168152602090f35b34610394576020366003190112610394576001600160a01b03611760613b96565b1660005260076020526101006040600020805490600181015490600281015460038201546004830154906005840154926007600686015495015495604051978852602088015260408701526060860152608085015260a084015260c083015260e0820152f35b34610394576117d436613c67565b90600052601360205260406000206005821015610394576080916117f791613c7d565b5060018060a01b038154169060018101549060ff600360028301549201541691604051938452602084015260408301526060820152f35b3461039457602036600319011261039457600435600052600e602052606060406000206001815491015460405191825263ffffffff90818116602084015260201c166040820152f35b34610394576000366003190112610394576002546040516001600160a01b039091168152602090f35b34610394576020366003190112610394576001600160a01b036118c1613b96565b1660005260126020526020604060002054604051908152f35b34610394576020366003190112610394576118f3613b96565b6118fb613e44565b6001600160a01b039081169081156104a25760025490811682146104a2576001600160a01b03191681176002557f3f32684a32a11dabdbb8c0177de80aa3ae36a004d75210335b49e544e48cd0aa600080a2005b3461039457602036600319011261039457600435600052600d6020526020604060002054604051908152f35b3461039457604036600319011261039457611994613b96565b6024356000526020906011825260406000209060018060a01b03166000528152604060002090604051808383829554938481520190600052836000209260005b858282106119ff575050506119eb92500383613a11565b610621604051928284938452830190613bac565b85548452600195860195889550930192016119d4565b3461039457600036600319011261039457611a2e613e44565b600080546001600160a01b0319811682556001600160a01b03167f8be0079c531659141344cd1fd0a4f28419497f9722a3daafe3b4186f6b6457e08280a3005b34610394576020366003190112610394576020611a8c600435614b34565b6040519015158152f35b3461039457600036600319011261039457602060405160058152f35b60031960203682011261039457600435906001600160401b03821161039457366023830112156103945760405191611ae98361398f565b82916101448201913683116103945780600401935b8385106125105785611b0e61410a565b60045480156113875780600052600f6020526040600020600160ff600383015460401c16611b3b81613a6f565b036113875760018101544210156109695760035434036124fe5781600052600a60205260406000209260005b600a811061237c5750611b78614037565b9360005b600a811061228b575050506005549260405190611b9882613974565b338252836020830152426040830152606082015260006080820152600060a0820152600060c0820152836000526010602052604060002060018060a01b038251166bffffffffffffffffffffffff60a01b8254161781556020820151600182015560408201516002820155606082015160038201906000905b600a8210611dd6575050506040906080830151603f820155019060ff60a08201511661ff0060c08454930151151560081b169161ffff191617179055611c58600554613e70565b600555816000526011602052604060002033600052602052611c7e8360406000206140bb565b336000526012602052611c958360406000206140bb565b81600052600d6020526040600020611cae348254613e90565b9055611cbc34601654613e90565b601655600360175463ffffffff9081611cd68183166140f5565b1663ffffffff198092161760175584600052600e6020526040600020611cfd348254613e90565b905584600052600e602052600160406000200180548284611d1f8184166140f5565b16911617905560028401611d34348254613e90565b90558284015491611d468184166140f5565b169116179101553360005260076020526040600020611d658154613e70565b908181558260078201556001810154906004600282015491015491604051938452602084015260408301526060820152600080516020614c3983398151915260803392a233907ff6e7d09282448c842ef23b148b6dfa2dc4b69839898341f8fb5065eb496cb0fa600080a460018055005b80516001600160401b0381511684549060208301516002811015610d4b5760ff60401b9060401b169168ffffffffffffffffff19161717845560408101518051906001600160401b038211610e1e578190611e346001880154613cbb565b601f8111612256575b50602090601f83116001146121e4576000926121d9575b50508160011b916000199060031b1c19161760018501555b6002840163ffffffff60608301511663ffffffff1982541617905560808101518051906001600160401b038211610e1e578190611eac6003880154613cbb565b601f81116121a4575b50602090601f831160011461213257600092612127575b50508160011b916000199060031b1c19161760038501555b60a08101518051906001600160401b038211610e1e57611f076004870154613cbb565b601f81116120f2575b50602090601f831160011461207f5760c093929160009183612074575b50508160011b916000199060031b1c19161760048601555b01518051906001600160401b038211610e1e57611f656005860154613cbb565b601f8111612034575b50602090601f8311600114611fbe579282600693602093600196600092611fb3575b5050600019600383901b1c191690851b1760058701555b01930191019091611c11565b015190508d80611f90565b906005860160005260206000209160005b601f198516811061201c575083602093600196938793600697601f19811610612003575b505050811b016005870155611fa7565b015160001960f88460031b161c191690558d8080611ff3565b91926020600181928685015181550194019201611fcf565b61206490600587016000526020600020601f850160051c8101916020861061206a575b601f0160051c0190613ebd565b8a611f6e565b9091508190612057565b015190508c80611f2d565b906004870160005260206000209160005b601f19851681106120da575091839160019360c09695601f198116106120c1575b505050811b016004860155611f45565b015160001960f88460031b161c191690558c80806120b1565b91926020600181928685015181550194019201612090565b61212190600488016000526020600020601f850160051c8101916020861061206a57601f0160051c0190613ebd565b8b611f10565b015190508b80611ecc565b9250600387016000526020600020906000935b601f1984168510612189576001945083601f19811610612170575b505050811b016003850155611ee4565b015160001960f88460031b161c191690558b8080612160565b81810151835560209485019460019093019290910190612145565b6121d390600389016000526020600020601f850160051c8101916020861061206a57601f0160051c0190613ebd565b8c611eb5565b015190508b80611e54565b9250600187016000526020600020906000935b601f198416851061223b576001945083601f19811610612222575b505050811b016001850155611e6c565b015160001960f88460031b161c191690558b8080612212565b818101518355602094850194600190930192909101906121f7565b61228590600189016000526020600020601f850160051c8101916020861061206a57601f0160051c0190613ebd565b8c611e3d565b6001600160401b0361229d8285613e7f565b51511660206122ac8386613e7f565b510151600280821015610d4b576122c38487613e7f565b5160400151906060806122d6878a613e7f565b51015163ffffffff166122e98789613ca7565b50916122f5888a613ca7565b5094612301898b613ca7565b5096604051986123108a613974565b895261231f9060208a01614097565b60408801528601520161233190613cf5565b608084015260030161234290613cf5565b60a083015260040161235390613cf5565b60c08201526123628288613e7f565b5261236d8187613e7f565b5061237790613e70565b611b7c565b6123868183613e7f565b516001600160401b038151166001600160401b036123a48489613ca7565b505416036104a2576123bf6123b98388613ca7565b50613ef5565b6020820180519060029182811015610d4b5761248c575050604082018051602081519101206123ec613fe0565b602081519101201460001461242e57506040015163ffffffff165b63ffffffff8091169182156104a2576060015116036104a25761242990613e70565b611b67565b80516020815191012061243f613ffd565b602081519101201460001461245e57506060015163ffffffff16612407565b516020815191012061246e61401a565b60208151910120146000146104a2576080015163ffffffff16612407565b5190811015610d4b576001036104a257604082018051602081519101206124b1613f9f565b60208151910120146000146124d0575060a0015163ffffffff16612407565b51602081519101206124e0613fbf565b60208151910120146000146104a25760c0015163ffffffff16612407565b60405163356680b760e01b8152600490fd5b84356001600160401b03811161039457820160e0848236030112610394576040519161253b83613974565b61254760048301613be0565b83526024820135600281101561039457602084015260448201356001600160401b0381116103945761257f9060043691850101613c0f565b604084015261259060648301613c56565b606084015260848201356001600160401b038111610394576125b89060043691850101613c0f565b608084015260a48201356001600160401b038111610394576125e09060043691850101613c0f565b60a084015260c4820135926001600160401b0384116103945761260d602094936004869536920101613c0f565b60c0820152815201940193611afe565b346103945760003660031901126103945760206040516103e88152f35b34610394576000366003190112610394576020604051600a8152f35b34610394576020366003190112610394576001600160a01b03612677613b96565b1660005260096020526020604060002054604051908152f35b346103945760003660031901126103945760a060ff63ffffffff6126b2614561565b9395909260405196875216602086015260408501526060840152166080820152f35b3461039457602036600319011261039457600435600052600f60205260e0604060002060ff81549160018101546003600283015492015491838360401c16916040519586526020860152604085015263ffffffff80831660608601528260201c16608085015261274381613a6f565b60a084015260481c16151560c0820152f35b3461039457602036600319011261039457600435600052601060205260c0604060002060ff60018060a01b038254169160018101549060028101546040603f83015492015492604051958652602086015260408501526060840152818116608084015260081c16151560a0820152f35b34610394576040366003190112610394576127de613b96565b60243560005260209060118252604060002060018060a01b038092166000528252604060002090604051808385829554938481520190600052856000209260005b878282106129405750505061283692500383613a11565b6128408251614511565b9260005b8351811015612916576128578185613ee1565b516000526010825260406000206040519061287182613974565b8481541682526001808201548584015260028201546040840152604051906128988261398f565b60006003840187845b600a84106128f8575050505050829160409160606128f396950152603f8101546080840152015460ff9081811660a084015260081c16151560c08201526128e88288613ee1565b5261076a8187613ee1565b612844565b84916006916129068561412d565b81520192019201919088906128a1565b612933846106218488604051948594604086526040860190613bac565b91848303908501526138fd565b855484526001958601958895509301920161281f565b3461039457602036600319011261039457600435600052600b6020526020604060002054604051908152f35b34610394576020366003190112610394576106216129a1600435614b6e565b60405191829182613a9b565b34610394576102a036600319011261039457600435366043121561039457604051906129d88261398f565b81906102a43681116103945760249283905b828210612bf15750506002546001600160a01b031633039050610f985780158015612be6575b61097b57806000526020600f81526040600020541561097b5781600052600f81526040600020936003948581019160ff8781855460401c16612a5181613a6f565b146113875760018093015442111561096957906000835b612b4d575b5050825460ff60401b1916600360401b1783555060008481526014845260409020805460ff1916909117905554929350909163ffffffff16612af457817fdd45cfbd9f2d20e6b7b6f5fa3148363d48017feae0c98de41ec4435a5aa75446929350600052600c8152426040600020555b82600052600d8152604060002054604051908152a2005b620151804201804211612b3857827fdd45cfbd9f2d20e6b7b6f5fa3148363d48017feae0c98de41ec4435a5aa75446939450600052600c8252604060002055612add565b83634e487b7160e01b60005260116004526000fd5b600a80821015612be057612b618284613e7f565b51908860005287526005612b79836040600020613ca7565b500190805190612b8882613a6f565b612b9182613a6f565b8883549101518c811015612bcb5791612bc393918761ff008a9998979560081b1692169061ffff191617179055613e70565b909192612a68565b8b634e487b7160e01b60005260216004526000fd5b50612a6d565b506004548111612a10565b6020604091612c003685613a32565b8152019101906129ea565b346103945760208060031936011261039457600435906001600160401b03908183116103945736602384011215610394578260040135918211610394576024600593368285871b8301011161039457612c6384614511565b9460005b858110612c8157604051858152806106218188018a6138fd565b8381831b8401013560005260108552604060002060405190612ca282613974565b80546001600160a01b031682526001818101548884015260028201546040808501919091525190612cd28261398f565b6000600384018a845b600a8410612d3257505050505082916040916060612d2d96950152603f8101546080840152015460ff9081811660a084015260081c16151560c0820152612d22828a613ee1565b5261076a8189613ee1565b612c67565b8491600691612d408561412d565b8152019201920191908b90612cdb565b346103945760403660031901126103945760243560ff8116809103610394576004356000526015602052604060002090600052602052602060ff604060002054166040519015158152f35b3461039457600036600319011261039457602060405160328152f35b34610394576020806003193601126103945760405160a0906001600160401b039082810182811182821017610e1e576040528360005b848110612ecf57505050600435600052601383526040600020906040519283019083821090821117610e1e57604052600083835b60058310612e8357508360405191826000905b60058210612e425761028085f35b835180516001600160a01b0316825280840151828501526040808201519083015260609081015160ff16908201529282019260019190910190608001612e34565b600191600491604051612e9581613959565b848060a01b03875416815284870154838201526002870154604082015260ff60038801541660608201528152019301910190918490612e21565b604051612edb81613959565b60008152600083820152600060408201526000606082015281840152018490612ded565b34610394576000366003190112610394576020600354604051908152f35b34610394576000366003190112610394576020600554604051908152f35b3461039457602036600319011261039457612f5461410a565b600554600435101561097b5760043560005260106020526040600020600181015480600052600f602052600360ff816040600020015460401c16612f9781613a6f565b036113875760408201549160ff8360081c166113875760006103e883600052600a60205260406000209460005b600a811061355c575061ffff191660ff831690811761010017604085015561300a92919015613554575b603f84018190558354600435906001600160a01b0316866146f8565b60018060a01b039054168060005260076020526040600020600083600052601160205260406000208360005260205260406000208054908161313c575b505050608081600080516020614c398339815191529254906001810154906004600282015491015491604051938452602084015260408301526060820152a280600052600e6020526040600020600f602052600160406000209101613112600363ffffffff936130e16130bf86865460201c166140f5565b855467ffffffff00000000191660209190911b67ffffffff0000000016178555565b016130f184825460201c166140f5565b67ffffffff0000000082549160201b169067ffffffff000000001916179055565b54908082169160201c16146131275760018055005b600052600c6020524260406000205580610539565b81600019810111610928576131559160001901906140a3565b90549060031b1c600052601060205260406000209083600760ff604085015416101560001461354357506001830161318d8154613e70565b905560ff6040830154168460005260096020526131b06040600020918254613e90565b9055600360ff604084015416600881101561353a575b6009811015613531575b600a14613529575b6000805b600560ff8216106134e9575b506134d7575b603f83015460028501805482116134c2575b50509060078401549260018401841161092857859360010187036134b6576005850161322c8154613e70565b809155600686018054821161349b575b50505b8360005260086020526040600020613258848254613e90565b90556006546001600160a01b0316806133b4575b508454806132db575b506060600080516020614c39833981519152959360809593604060ff817f9c7b6f99cba4ae2b8837d2a4ff724e1273427755c6f2e43bac3108bccb98b66a9601541691868152600860205220549060405192835260208301526040820152a29185613047565b90919293506003850180546000198301908382116133a05761330f613304613314938693613eaa565b603f87015490613e90565b6141bd565b905560018501546127109081810291818304149015171561338c57608094600080516020614c398339815191529694604060ff818b976133777f9c7b6f99cba4ae2b8837d2a4ff724e1273427755c6f2e43bac3108bccb98b66a986060986141bd565b60048b01559650505050939550939550613275565b634e487b7160e01b84526011600452602484fd5b634e487b7160e01b86526011600452602486fd5b9350604081015493604051946e027b2323cb9b9b2bc9031bcb1b6329608d1b602087015288602f8701526201016960ed1b604f87015260ff60f81b9060f81b166052860152670818dbdc9c9958dd60c21b6053860152603b85528460608101106001600160401b03606087011117610e1e5760608501604052803b15610394576379435c8360e01b606086810191825260648701899052600b608488015260a4870152600091605f198761346b60c482018261377f565b0301908360608901915af19384156107845786941561326c576134929192506060016139ab565b6000908761326c565b5591925060038301831161092857600385930191878061323c565b6001600586015561323f565b55600281018111610928576002018680613200565b600a8101811161092857600a016131ee565b87600052601360205286613501826040600020613c7d565b50546001600160a01b03161461351f5761351a906141ac565b6131dc565b50506001876131e8565b5060086131d8565b600691506131d0565b600491506131c6565b91906000600585015560019161323f565b506000612fee565b61357261356c8260038801613ca7565b5061412d565b61357f6123b9838a613ca7565b60009060208301516002811015610d4b576136d25760408301908151602081519101206135aa613fe0565b602081519101201491826136ae575b8215613665575b8215613618575b5050613610575b6135e2575b506135dd90613e70565b612fc4565b936136086135dd929463ffffffff60606135fe6103e8956141ac565b9801511690613eaa565b0492906135d3565b5060016135ce565b909150516020815191012061362b61401a565b60208151910120149081613642575b508a806135c7565b6003915061014001515161365581613a6f565b61365e81613a6f565b148a61363a565b8092505160208151910120613678613ffd565b60208151910120148061368c575b916135c0565b5060026101408201515161369f81613a6f565b6136a881613a6f565b14613686565b91506001610140820151516136c281613a6f565b6136cb81613a6f565b14916135b9565b6040830151602081519101206136e6613f9f565b6020815191012014908161375a575b811561370a575b50156135ce575060016135ce565b9050604083015160208151910120613720613fbf565b60208151910120149081613736575b508a6136fc565b61014001516137489150602001613ed4565b6003811015610d4b576002148a61372f565b905061376d602061014083015101613ed4565b6003811015610d4b57600114906136f5565b919082519283825260005b8481106137ab575050826000602080949584010152601f8019910116010190565b60208183018101518483018201520161378a565b80516001600160a01b03168252602080820151818401526040808301518185015260608084015160e082870181905261022087019695949193818701939192916000918291905b600a841061383b57505050505050505060c081608082930151608085015260ff60a08201511660a08501520151151591015290565b909192939495969960df198a82030188528a516001600160401b0381511682528681015160028110156138e9576138d98389936138c66138b36138928e88978860019b01528a85015190808c88015286019061377f565b63ffffffff8b850151168b860152608080850151908683039087015261377f565b60a080840151908583039086015261377f565b9160c0809201519181840391015261377f565b9c01980196959401929190613806565b634e487b7160e01b86526021600452602486fd5b908082519081815260208091019281808460051b8301019501936000915b84831061392b5750505050505090565b9091929394958480613949600193601f198682030187528a516137bf565b980193019301919493929061391b565b608081019081106001600160401b03821117610e1e57604052565b60e081019081106001600160401b03821117610e1e57604052565b61014081019081106001600160401b03821117610e1e57604052565b6001600160401b038111610e1e57604052565b61016081019081106001600160401b03821117610e1e57604052565b61010081019081106001600160401b03821117610e1e57604052565b604081019081106001600160401b03821117610e1e57604052565b90601f801991011681019081106001600160401b03821117610e1e57604052565b919082604091031261039457604051613a4a816139f6565b8092803590600482101561039457602091835201359060038210156103945760200152565b60041115610d4b57565b6020908051613a8781613a6f565b83520151906003821015610d4b5760200152565b6020808252610160820192919060008282015b600a8210613abe57505050505090565b90919293948380600192601f19888203018552613b878951916001600160401b0380845116825284840151168482015263ffffffff60408181860151169083015260608181860151169083015260808181860151169083015260a08181860151169083015260c090818501511690820152613b77613b63613b4f60e08087015190610180809187015285019061377f565b61010080870151908583039086015261377f565b61012080860151908483039085015261377f565b9261014080910151910190613a79565b97019201920190939291613aae565b600435906001600160a01b038216820361039457565b90815180825260208080930193019160005b828110613bcc575050505090565b835185529381019392810192600101613bbe565b35906001600160401b038216820361039457565b6001600160401b038111610e1e57601f01601f191660200190565b81601f8201121561039457803590613c2682613bf4565b92613c346040519485613a11565b8284526020838301011161039457816000926020809301838601378301015290565b359063ffffffff8216820361039457565b6040906003190112610394576004359060243590565b906005811015613c915760021b0190600090565b634e487b7160e01b600052603260045260246000fd5b90600a811015613c91576006020190600090565b90600182811c92168015613ceb575b6020831014613cd557565b634e487b7160e01b600052602260045260246000fd5b91607f1691613cca565b9060405191826000825492613d0984613cbb565b908184526001948581169081600014613d785750600114613d35575b5050613d3392500383613a11565b565b9093915060005260209081600020936000915b818310613d60575050613d3393508201013880613d25565b85548884018501529485019487945091830191613d48565b915050613d3394506020925060ff191682840152151560051b8201013880613d25565b90604051613da8816139f6565b60ff819354818116613db981613a6f565b835260081c16906003821015610d4b5760200152565b6001600160401b038111610e1e5760051b60200190565b81601f8201121561039457803591613dfd83613dcf565b92613e0b6040519485613a11565b808452602092838086019260051b820101928311610394578301905b828210613e35575050505090565b81358152908301908301613e27565b6000546001600160a01b03163303613e5857565b60405163118cdaa760e01b8152336004820152602490fd5b60001981146109285760010190565b90600a811015613c915760051b0190565b9190820180921161092857565b9190820391821161092857565b8181029291811591840414171561092857565b818110613ec8575050565b60008155600101613ebd565b516003811015610d4b5790565b8051821015613c915760209160051b010190565b90604051613f02816139be565b610140613f9a6005839580546001600160401b0380821687528160401c16602087015263ffffffff90818160801c166040880152818160a01c166060880152818160c01c16608088015260e01c60a087015260018201541660c0860152613f6b60028201613cf5565b60e0860152613f7c60038201613cf5565b610100860152613f8e60048201613cf5565b61012086015201613d9b565b910152565b60405190613fac826139f6565b600482526327bb32b960e11b6020830152565b60405190613fcc826139f6565b60058252642ab73232b960d91b6020830152565b60405190613fed826139f6565b60018252603160f81b6020830152565b6040519061400a826139f6565b60018252600b60fb1b6020830152565b60405190614027826139f6565b60018252601960f91b6020830152565b6040908151916140468361398f565b600083815b610140811061405a5750505050565b602090845161406881613974565b84815284838201526060808783015285818301528060808301528060a083015260c0820152818401520161404b565b6002821015610d4b5752565b8054821015613c915760005260206000200190600090565b805468010000000000000000811015610e1e576140dd916001820181556140a3565b819291549060031b91821b91600019901b1916179055565b63ffffffff8091169081146109285760010190565b60026001541461411b576002600155565b604051633ee5aeb560e01b8152600490fd5b9060405161413a81613974565b60c0613f9a6005839561416360ff82546001600160401b038116885260401c1660208701614097565b61416f60018201613cf5565b604086015263ffffffff600282015416606086015261419060038201613cf5565b60808601526141a160048201613cf5565b60a086015201613cf5565b60ff1660ff81146109285760010190565b81156141c7570490565b634e487b7160e01b600052601260045260246000fd5b3d15614208573d906141ee82613bf4565b916141fc6040519384613a11565b82523d6000602084013e565b606090565b6000908082526020600f815260ff92604091600385818585200154851c1661423481613a6f565b0361442957838252600c8152828220544210614418578382526013815282822082908390845b6005898216106143e2575b5050156143d157848352601582528383209580821696878552835284842054166143c057848352600d82528383205461429d91614948565b91821561439f57848152601582528381208682528252838120805460ff19166001179055808080806142fd6127106142f57f00000000000000000000000000000000000000000000000000000000000000008a613eaa565b048098613e9d565b967f00000000000000000000000000000000000000000000000000000000000000006001600160a01b03165af16143326141dd565b501561438e5780808085335af16143476141dd565b501561437d57825194855284015233927f64da964e036dd66a7be792791f60a47ec5378950b9d12795de3f453aa3940eb09190a3565b82516312171d8360e31b8152600490fd5b83516312171d8360e31b8152600490fd5b93845260158152828420948452939093529020805460ff1916600117905550565b835163baf3f0f760e01b8152600490fd5b8351635a26d5fd60e11b8152600490fd5b6143ec8183613c7d565b50546001600160a01b0316331461440b57614406906141ac565b61425a565b9250505060013880614265565b825163c8b9bc9160e01b8152600490fd5b825163baf3f0f760e01b8152600490fd5b60408051916144488361398f565b829160005b610140808210156144ca57825160209291614467826139be565b600082528390600082840152600086840152606060008185015260006080850152600060a0850152600060c08501528060e08501528061010085015261012084015260008651926144b7846139f6565b818452830152820152818701520161444d565b505050909150565b604051906144df82613974565b8160c06000918281528260208201528260408201526144fc614037565b60608201528260808201528260a08201520152565b9061451b82613dcf565b6145286040519182613a11565b8281528092614539601f1991613dcf565b019060005b82811061454a57505050565b6020906145556144d2565b8282850101520161453e565b6004548061457b5750600090600090600090600090600090565b9081600052600f6020526040600020906040519261459884613974565b8254845260018301549160208501928352600360028501549460408701958652015494606081019363ffffffff918288168652828860201c16608082015260c060ff808a60401c16996145ea8b613a6f565b8a60a085015260481c16151591015261460287613a6f565b61460b87613a6f565b519451935116919493929190565b801580156146e0575b6146cb57600052600f60205260406000206040519161464083613974565b81548352600182015460208401908152600360028401549360408601948552015490606085019263ffffffff8084168552808460201c16608088015260ff8460401c169661468d88613a6f565b8760a082015260ff60c082019560481c1615158552511515926146af88613a6f565b6146b888613a6f565b5195519451169251151591959493929190565b50600090600090600090600090600090600090565b506004548111614622565b8015610928576000190190565b9291939060ff80921692600784106149405760009585875260136020526040872092600019936005805b6148ba575b506001850161473c575b505050505050505050565b600494855b8181116148065750614781906040519261475a84613959565b6001600160a01b039485168452602084019586526040840196875260608401998a52613c7d565b9590956147f457505184546001600160a01b031916911617835551600183015551600282015591516003928301805460ff191691909216179055908252600f602052604090912001805469ff00000000000000000019166901000000000000000000179055388080808080808080614731565b634e487b7160e01b8a52899052602489fd5b60001981018181116148a75761481c9084613c7d565b506148278285613c7d565b6148955790898282614842959403614847575b5050506146eb565b614741565b825481546001600160a01b0319166001600160a01b039190911617815560018381015490820155600280840154908201556003928301549201805460ff19169190921617905538898161483a565b634e487b7160e01b8d528c895260248dfd5b634e487b7160e01b8c526011885260248cfd5b9460001986019086821161492c576148d28284613c7d565b5060028101549089828911928315614907575b50505060001461490057506148fa90956146eb565b80614722565b9550614727565b89149250908261491c575b50503889816148e5565b60030154168a1190508838614912565b634e487b7160e01b8b52601160045260248bfd5b505050505050565b60009060ff168061496957505061496561271091610fa090613eaa565b0490565b6001810361498357505061496561271091610bb890613eaa565b6002810361499d575050614965612710916107d090613eaa565b600381036149b7575050614965612710916101f490613eaa565b6004036149cf5750614965612710916101f490613eaa565b905090565b8015614b315760008181526013602052604080822080546001600160a01b039493929190851615908115614b1e575b50614a0f575b50505050565b600d602052808220549182614a25575b50614a09565b614a5d612710614a557f000000000000000000000000000000000000000000000000000000000000000086613eaa565b048094613e9d565b92848252600d60205281838120556001850195868611614b0a578280928192898352600d602052868320614a92898254613e90565b90557f0000000000000000000000000000000000000000000000000000000000000000165af1614ac06141dd565b5015614afa577fd02ee9eafb934e2ffd95384478ef177c9932fd0d6cb1813747b8eefdf55d8b199160209151908152a33880808080614a1f565b516312171d8360e31b8152600490fd5b634e487b7160e01b83526011600452602483fd5b60079150600360ff910154161038614a03565b50565b60045481118015614b66575b614b6057600052600a6020526001600160401b0360406000205416151590565b50600090565b508015614b40565b614b7661443a565b5060045481111580614c2f575b15614bf357600052600a602090808252604060002060405192614ba58461398f565b600091845b848410614bd65750505050506001600160401b038151511615614bca5790565b50614bd361443a565b90565b600683600192614be585613ef5565b815201920193019290614baa565b60405162461bcd60e51b815260206004820152601460248201527310de58db1948191bd95cc81b9bdd08195e1a5cdd60621b6044820152606490fd5b50801515614b8356fedbc55064e49993e4c979488990287b80a393512ce56bbe0cb3834df880cf97c7a264697066735822122008842752e281150b0bc913780faa951cd5f2cfece2e22721b97452d620696bc464736f6c63430008140033",
  "linkReferences": {},
  "deployedLinkReferences": {}
}