{
  "_format": "hh-sol-artifact-1",
  "contractName": "Oddyssey",
  "sourceName": "contracts/Oddyssey.sol",
  "abi": [
    {
      "inputs": [
        {
          "internalType": "address",
          "name": "_tokenAddress",
          "type": "address"
        },
        {
          "internalType": "address",
          "name": "_devWallet",
          "type": "address"
        },
        {
          "internalType": "uint256",
          "name": "_initialEntryFee",
          "type": "uint256"
        }
      ],
      "stateMutability": "nonpayable",
      "type": "constructor"
    },
    {
      "inputs": [],
      "name": "BettingClosed",
      "type": "error"
    },
    {
      "inputs": [],
      "name": "ClaimingNotAvailable",
      "type": "error"
    },
    {
      "inputs": [],
      "name": "CycleNotResolved",
      "type": "error"
    },
    {
      "inputs": [],
      "name": "GameNotActive",
      "type": "error"
    },
    {
      "inputs": [],
      "name": "InvalidFee",
      "type": "error"
    },
    {
      "inputs": [],
      "name": "InvalidPredictionCount",
      "type": "error"
    },
    {
      "inputs": [],
      "name": "InvalidSelection",
      "type": "error"
    },
    {
      "inputs": [],
      "name": "InvalidStartTime",
      "type": "error"
    },
    {
      "inputs": [],
      "name": "NotOnLeaderboard",
      "type": "error"
    },
    {
      "inputs": [],
      "name": "OddsNotSet",
      "type": "error"
    },
    {
      "inputs": [
        {
          "internalType": "address",
          "name": "owner",
          "type": "address"
        }
      ],
      "name": "OwnableInvalidOwner",
      "type": "error"
    },
    {
      "inputs": [
        {
          "internalType": "address",
          "name": "account",
          "type": "address"
        }
      ],
      "name": "OwnableUnauthorizedAccount",
      "type": "error"
    },
    {
      "inputs": [],
      "name": "PrizeAlreadyClaimed",
      "type": "error"
    },
    {
      "inputs": [],
      "name": "ReentrancyGuardReentrantCall",
      "type": "error"
    },
    {
      "inputs": [],
      "name": "SlipAlreadyEvaluated",
      "type": "error"
    },
    {
      "inputs": [],
      "name": "Unauthorized",
      "type": "error"
    },
    {
      "anonymous": false,
      "inputs": [
        {
          "indexed": true,
          "internalType": "uint256",
          "name": "cycleId",
          "type": "uint256"
        },
        {
          "indexed": false,
          "internalType": "uint256",
          "name": "prizePool",
          "type": "uint256"
        }
      ],
      "name": "CycleResolved",
      "type": "event"
    },
    {
      "anonymous": false,
      "inputs": [
        {
          "indexed": true,
          "internalType": "uint256",
          "name": "cycleId",
          "type": "uint256"
        },
        {
          "indexed": false,
          "internalType": "uint256",
          "name": "endTime",
          "type": "uint256"
        }
      ],
      "name": "CycleStarted",
      "type": "event"
    },
    {
      "anonymous": false,
      "inputs": [
        {
          "indexed": true,
          "internalType": "uint256",
          "name": "newFee",
          "type": "uint256"
        }
      ],
      "name": "EntryFeeSet",
      "type": "event"
    },
    {
      "anonymous": false,
      "inputs": [
        {
          "indexed": true,
          "internalType": "address",
          "name": "newOracle",
          "type": "address"
        }
      ],
      "name": "OracleSet",
      "type": "event"
    },
    {
      "anonymous": false,
      "inputs": [
        {
          "indexed": true,
          "internalType": "address",
          "name": "previousOwner",
          "type": "address"
        },
        {
          "indexed": true,
          "internalType": "address",
          "name": "newOwner",
          "type": "address"
        }
      ],
      "name": "OwnershipTransferred",
      "type": "event"
    },
    {
      "anonymous": false,
      "inputs": [
        {
          "indexed": true,
          "internalType": "uint256",
          "name": "cycleId",
          "type": "uint256"
        },
        {
          "indexed": true,
          "internalType": "address",
          "name": "player",
          "type": "address"
        },
        {
          "indexed": false,
          "internalType": "uint256",
          "name": "rank",
          "type": "uint256"
        },
        {
          "indexed": false,
          "internalType": "uint256",
          "name": "amount",
          "type": "uint256"
        }
      ],
      "name": "PrizeClaimed",
      "type": "event"
    },
    {
      "anonymous": false,
      "inputs": [
        {
          "indexed": true,
          "internalType": "uint256",
          "name": "fromCycleId",
          "type": "uint256"
        },
        {
          "indexed": true,
          "internalType": "uint256",
          "name": "toCycleId",
          "type": "uint256"
        },
        {
          "indexed": false,
          "internalType": "uint256",
          "name": "amount",
          "type": "uint256"
        }
      ],
      "name": "PrizeRollover",
      "type": "event"
    },
    {
      "anonymous": false,
      "inputs": [
        {
          "indexed": true,
          "internalType": "uint256",
          "name": "cycleId",
          "type": "uint256"
        },
        {
          "indexed": true,
          "internalType": "address",
          "name": "player",
          "type": "address"
        },
        {
          "indexed": true,
          "internalType": "uint256",
          "name": "slipId",
          "type": "uint256"
        }
      ],
      "name": "SlipPlaced",
      "type": "event"
    },
    {
      "inputs": [],
      "name": "DAILY_LEADERBOARD_SIZE",
      "outputs": [
        {
          "internalType": "uint256",
          "name": "",
          "type": "uint256"
        }
      ],
      "stateMutability": "view",
      "type": "function"
    },
    {
      "inputs": [],
      "name": "DEV_FEE_PERCENTAGE",
      "outputs": [
        {
          "internalType": "uint256",
          "name": "",
          "type": "uint256"
        }
      ],
      "stateMutability": "view",
      "type": "function"
    },
    {
      "inputs": [],
      "name": "MATCH_COUNT",
      "outputs": [
        {
          "internalType": "uint256",
          "name": "",
          "type": "uint256"
        }
      ],
      "stateMutability": "view",
      "type": "function"
    },
    {
      "inputs": [],
      "name": "MIN_CORRECT_PREDICTIONS",
      "outputs": [
        {
          "internalType": "uint256",
          "name": "",
          "type": "uint256"
        }
      ],
      "stateMutability": "view",
      "type": "function"
    },
    {
      "inputs": [],
      "name": "ODDS_SCALING_FACTOR",
      "outputs": [
        {
          "internalType": "uint256",
          "name": "",
          "type": "uint256"
        }
      ],
      "stateMutability": "view",
      "type": "function"
    },
    {
      "inputs": [],
      "name": "PRIZE_ROLLOVER_FEE_PERCENTAGE",
      "outputs": [
        {
          "internalType": "uint256",
          "name": "",
          "type": "uint256"
        }
      ],
      "stateMutability": "view",
      "type": "function"
    },
    {
      "inputs": [
        {
          "internalType": "uint256",
          "name": "_cycleId",
          "type": "uint256"
        }
      ],
      "name": "claimPrize",
      "outputs": [],
      "stateMutability": "nonpayable",
      "type": "function"
    },
    {
      "inputs": [
        {
          "internalType": "uint256",
          "name": "",
          "type": "uint256"
        }
      ],
      "name": "claimableStartTimes",
      "outputs": [
        {
          "internalType": "uint256",
          "name": "",
          "type": "uint256"
        }
      ],
      "stateMutability": "view",
      "type": "function"
    },
    {
      "inputs": [
        {
          "internalType": "uint256",
          "name": "",
          "type": "uint256"
        }
      ],
      "name": "cycleStats",
      "outputs": [
        {
          "internalType": "uint256",
          "name": "volume",
          "type": "uint256"
        },
        {
          "internalType": "uint32",
          "name": "slips",
          "type": "uint32"
        },
        {
          "internalType": "uint32",
          "name": "evaluatedSlips",
          "type": "uint32"
        }
      ],
      "stateMutability": "view",
      "type": "function"
    },
    {
      "inputs": [
        {
          "internalType": "uint256",
          "name": "",
          "type": "uint256"
        }
      ],
      "name": "dailyCycleEndTimes",
      "outputs": [
        {
          "internalType": "uint256",
          "name": "",
          "type": "uint256"
        }
      ],
      "stateMutability": "view",
      "type": "function"
    },
    {
      "inputs": [],
      "name": "dailyCycleId",
      "outputs": [
        {
          "internalType": "uint256",
          "name": "",
          "type": "uint256"
        }
      ],
      "stateMutability": "view",
      "type": "function"
    },
    {
      "inputs": [
        {
          "internalType": "uint256",
          "name": "",
          "type": "uint256"
        },
        {
          "internalType": "uint256",
          "name": "",
          "type": "uint256"
        }
      ],
      "name": "dailyLeaderboards",
      "outputs": [
        {
          "internalType": "address",
          "name": "player",
          "type": "address"
        },
        {
          "internalType": "uint256",
          "name": "slipId",
          "type": "uint256"
        },
        {
          "internalType": "uint256",
          "name": "finalScore",
          "type": "uint256"
        },
        {
          "internalType": "uint8",
          "name": "correctCount",
          "type": "uint8"
        }
      ],
      "stateMutability": "view",
      "type": "function"
    },
    {
      "inputs": [
        {
          "internalType": "uint256",
          "name": "",
          "type": "uint256"
        },
        {
          "internalType": "uint256",
          "name": "",
          "type": "uint256"
        }
      ],
      "name": "dailyMatches",
      "outputs": [
        {
          "internalType": "uint64",
          "name": "id",
          "type": "uint64"
        },
        {
          "internalType": "string",
          "name": "team1",
          "type": "string"
        },
        {
          "internalType": "string",
          "name": "team2",
          "type": "string"
        },
        {
          "internalType": "uint64",
          "name": "startTime",
          "type": "uint64"
        },
        {
          "internalType": "uint32",
          "name": "oddsHome",
          "type": "uint32"
        },
        {
          "internalType": "uint32",
          "name": "oddsDraw",
          "type": "uint32"
        },
        {
          "internalType": "uint32",
          "name": "oddsAway",
          "type": "uint32"
        },
        {
          "internalType": "uint32",
          "name": "oddsOver",
          "type": "uint32"
        },
        {
          "internalType": "uint32",
          "name": "oddsUnder",
          "type": "uint32"
        },
        {
          "components": [
            {
              "internalType": "enum Oddyssey.MoneylineResult",
              "name": "moneyline",
              "type": "uint8"
            },
            {
              "internalType": "enum Oddyssey.OverUnderResult",
              "name": "overUnder",
              "type": "uint8"
            }
          ],
          "internalType": "struct Oddyssey.Result",
          "name": "result",
          "type": "tuple"
        }
      ],
      "stateMutability": "view",
      "type": "function"
    },
    {
      "inputs": [
        {
          "internalType": "uint256",
          "name": "",
          "type": "uint256"
        }
      ],
      "name": "dailyPrizePools",
      "outputs": [
        {
          "internalType": "uint256",
          "name": "",
          "type": "uint256"
        }
      ],
      "stateMutability": "view",
      "type": "function"
    },
    {
      "inputs": [],
      "name": "devWallet",
      "outputs": [
        {
          "internalType": "address",
          "name": "",
          "type": "address"
        }
      ],
      "stateMutability": "view",
      "type": "function"
    },
    {
      "inputs": [],
      "name": "entryFee",
      "outputs": [
        {
          "internalType": "uint256",
          "name": "",
          "type": "uint256"
        }
      ],
      "stateMutability": "view",
      "type": "function"
    },
    {
      "inputs": [
        {
          "internalType": "uint256",
          "name": "_slipId",
          "type": "uint256"
        }
      ],
      "name": "evaluateSlip",
      "outputs": [],
      "stateMutability": "nonpayable",
      "type": "function"
    },
    {
      "inputs": [
        {
          "internalType": "uint256",
          "name": "_cycleId",
          "type": "uint256"
        }
      ],
      "name": "getDailyLeaderboard",
      "outputs": [
        {
          "components": [
            {
              "internalType": "address",
              "name": "player",
              "type": "address"
            },
            {
              "internalType": "uint256",
              "name": "slipId",
              "type": "uint256"
            },
            {
              "internalType": "uint256",
              "name": "finalScore",
              "type": "uint256"
            },
            {
              "internalType": "uint8",
              "name": "correctCount",
              "type": "uint8"
            }
          ],
          "internalType": "struct Oddyssey.LeaderboardEntry[5]",
          "name": "",
          "type": "tuple[5]"
        }
      ],
      "stateMutability": "view",
      "type": "function"
    },
    {
      "inputs": [
        {
          "internalType": "uint256",
          "name": "_cycleId",
          "type": "uint256"
        }
      ],
      "name": "getDailyMatches",
      "outputs": [
        {
          "components": [
            {
              "internalType": "uint64",
              "name": "id",
              "type": "uint64"
            },
            {
              "internalType": "string",
              "name": "team1",
              "type": "string"
            },
            {
              "internalType": "string",
              "name": "team2",
              "type": "string"
            },
            {
              "internalType": "uint64",
              "name": "startTime",
              "type": "uint64"
            },
            {
              "internalType": "uint32",
              "name": "oddsHome",
              "type": "uint32"
            },
            {
              "internalType": "uint32",
              "name": "oddsDraw",
              "type": "uint32"
            },
            {
              "internalType": "uint32",
              "name": "oddsAway",
              "type": "uint32"
            },
            {
              "internalType": "uint32",
              "name": "oddsOver",
              "type": "uint32"
            },
            {
              "internalType": "uint32",
              "name": "oddsUnder",
              "type": "uint32"
            },
            {
              "components": [
                {
                  "internalType": "enum Oddyssey.MoneylineResult",
                  "name": "moneyline",
                  "type": "uint8"
                },
                {
                  "internalType": "enum Oddyssey.OverUnderResult",
                  "name": "overUnder",
                  "type": "uint8"
                }
              ],
              "internalType": "struct Oddyssey.Result",
              "name": "result",
              "type": "tuple"
            }
          ],
          "internalType": "struct Oddyssey.Match[10]",
          "name": "",
          "type": "tuple[10]"
        }
      ],
      "stateMutability": "view",
      "type": "function"
    },
    {
      "inputs": [
        {
          "internalType": "uint256",
          "name": "_slipId",
          "type": "uint256"
        }
      ],
      "name": "getSlip",
      "outputs": [
        {
          "components": [
            {
              "internalType": "address",
              "name": "player",
              "type": "address"
            },
            {
              "internalType": "uint256",
              "name": "cycleId",
              "type": "uint256"
            },
            {
              "internalType": "uint256",
              "name": "timestamp",
              "type": "uint256"
            },
            {
              "components": [
                {
                  "internalType": "uint8",
                  "name": "matchIndex",
                  "type": "uint8"
                },
                {
                  "internalType": "enum Oddyssey.PredictionChoice",
                  "name": "choice",
                  "type": "uint8"
                },
                {
                  "internalType": "uint8",
                  "name": "selection",
                  "type": "uint8"
                }
              ],
              "internalType": "struct Oddyssey.UserPrediction[10]",
              "name": "predictions",
              "type": "tuple[10]"
            },
            {
              "internalType": "uint256",
              "name": "finalScore",
              "type": "uint256"
            },
            {
              "internalType": "uint8",
              "name": "correctCount",
              "type": "uint8"
            },
            {
              "internalType": "bool",
              "name": "isEvaluated",
              "type": "bool"
            }
          ],
          "internalType": "struct Oddyssey.Slip",
          "name": "",
          "type": "tuple"
        }
      ],
      "stateMutability": "view",
      "type": "function"
    },
    {
      "inputs": [
        {
          "internalType": "address",
          "name": "_user",
          "type": "address"
        },
        {
          "internalType": "uint256",
          "name": "_cycleId",
          "type": "uint256"
        }
      ],
      "name": "getUserSlipsForCycle",
      "outputs": [
        {
          "internalType": "uint256[]",
          "name": "",
          "type": "uint256[]"
        }
      ],
      "stateMutability": "view",
      "type": "function"
    },
    {
      "inputs": [
        {
          "internalType": "uint256",
          "name": "",
          "type": "uint256"
        }
      ],
      "name": "isCycleResolved",
      "outputs": [
        {
          "internalType": "bool",
          "name": "",
          "type": "bool"
        }
      ],
      "stateMutability": "view",
      "type": "function"
    },
    {
      "inputs": [
        {
          "internalType": "address",
          "name": "",
          "type": "address"
        }
      ],
      "name": "isPlayer",
      "outputs": [
        {
          "internalType": "bool",
          "name": "",
          "type": "bool"
        }
      ],
      "stateMutability": "view",
      "type": "function"
    },
    {
      "inputs": [],
      "name": "oracle",
      "outputs": [
        {
          "internalType": "address",
          "name": "",
          "type": "address"
        }
      ],
      "stateMutability": "view",
      "type": "function"
    },
    {
      "inputs": [],
      "name": "owner",
      "outputs": [
        {
          "internalType": "address",
          "name": "",
          "type": "address"
        }
      ],
      "stateMutability": "view",
      "type": "function"
    },
    {
      "inputs": [
        {
          "components": [
            {
              "internalType": "uint8",
              "name": "matchIndex",
              "type": "uint8"
            },
            {
              "internalType": "enum Oddyssey.PredictionChoice",
              "name": "choice",
              "type": "uint8"
            },
            {
              "internalType": "uint8",
              "name": "selection",
              "type": "uint8"
            }
          ],
          "internalType": "struct Oddyssey.UserPrediction[10]",
          "name": "_predictions",
          "type": "tuple[10]"
        }
      ],
      "name": "placeSlip",
      "outputs": [],
      "stateMutability": "nonpayable",
      "type": "function"
    },
    {
      "inputs": [
        {
          "internalType": "uint256",
          "name": "",
          "type": "uint256"
        },
        {
          "internalType": "uint8",
          "name": "",
          "type": "uint8"
        }
      ],
      "name": "prizeClaimed",
      "outputs": [
        {
          "internalType": "bool",
          "name": "",
          "type": "bool"
        }
      ],
      "stateMutability": "view",
      "type": "function"
    },
    {
      "inputs": [],
      "name": "renounceOwnership",
      "outputs": [],
      "stateMutability": "nonpayable",
      "type": "function"
    },
    {
      "inputs": [
        {
          "components": [
            {
              "internalType": "enum Oddyssey.MoneylineResult",
              "name": "moneyline",
              "type": "uint8"
            },
            {
              "internalType": "enum Oddyssey.OverUnderResult",
              "name": "overUnder",
              "type": "uint8"
            }
          ],
          "internalType": "struct Oddyssey.Result[10]",
          "name": "_results",
          "type": "tuple[10]"
        }
      ],
      "name": "resolveDailyCycle",
      "outputs": [],
      "stateMutability": "nonpayable",
      "type": "function"
    },
    {
      "inputs": [],
      "name": "s_token",
      "outputs": [
        {
          "internalType": "contract IERC20",
          "name": "",
          "type": "address"
        }
      ],
      "stateMutability": "view",
      "type": "function"
    },
    {
      "inputs": [
        {
          "internalType": "uint256",
          "name": "_newFee",
          "type": "uint256"
        }
      ],
      "name": "setEntryFee",
      "outputs": [],
      "stateMutability": "nonpayable",
      "type": "function"
    },
    {
      "inputs": [
        {
          "internalType": "address",
          "name": "_newOracle",
          "type": "address"
        }
      ],
      "name": "setOracle",
      "outputs": [],
      "stateMutability": "nonpayable",
      "type": "function"
    },
    {
      "inputs": [
        {
          "components": [
            {
              "internalType": "uint64",
              "name": "id",
              "type": "uint64"
            },
            {
              "internalType": "string",
              "name": "team1",
              "type": "string"
            },
            {
              "internalType": "string",
              "name": "team2",
              "type": "string"
            },
            {
              "internalType": "uint64",
              "name": "startTime",
              "type": "uint64"
            },
            {
              "internalType": "uint32",
              "name": "oddsHome",
              "type": "uint32"
            },
            {
              "internalType": "uint32",
              "name": "oddsDraw",
              "type": "uint32"
            },
            {
              "internalType": "uint32",
              "name": "oddsAway",
              "type": "uint32"
            },
            {
              "internalType": "uint32",
              "name": "oddsOver",
              "type": "uint32"
            },
            {
              "internalType": "uint32",
              "name": "oddsUnder",
              "type": "uint32"
            },
            {
              "components": [
                {
                  "internalType": "enum Oddyssey.MoneylineResult",
                  "name": "moneyline",
                  "type": "uint8"
                },
                {
                  "internalType": "enum Oddyssey.OverUnderResult",
                  "name": "overUnder",
                  "type": "uint8"
                }
              ],
              "internalType": "struct Oddyssey.Result",
              "name": "result",
              "type": "tuple"
            }
          ],
          "internalType": "struct Oddyssey.Match[10]",
          "name": "_matches",
          "type": "tuple[10]"
        }
      ],
      "name": "startDailyCycle",
      "outputs": [],
      "stateMutability": "nonpayable",
      "type": "function"
    },
    {
      "inputs": [],
      "name": "stats",
      "outputs": [
        {
          "internalType": "uint256",
          "name": "totalVolume",
          "type": "uint256"
        },
        {
          "internalType": "uint32",
          "name": "totalSlips",
          "type": "uint32"
        },
        {
          "internalType": "uint256",
          "name": "highestOdd",
          "type": "uint256"
        }
      ],
      "stateMutability": "view",
      "type": "function"
    },
    {
      "inputs": [],
      "name": "totalPlayers",
      "outputs": [
        {
          "internalType": "uint32",
          "name": "",
          "type": "uint32"
        }
      ],
      "stateMutability": "view",
      "type": "function"
    },
    {
      "inputs": [
        {
          "internalType": "address",
          "name": "newOwner",
          "type": "address"
        }
      ],
      "name": "transferOwnership",
      "outputs": [],
      "stateMutability": "nonpayable",
      "type": "function"
    }
  ],
  "bytecode": "0x610100346200015357601f62002e8938819003918201601f19168301916001600160401b03831184841017620001585780849260609460405283398101031262000153576200004e816200016e565b9060406200005f602083016200016e565b91015133156200013a57600080546001600160a01b0319808216339081178455604051969195936001600160a01b03938416907f8be0079c531659141344cd1fd0a4f28419497f9722a3daafe3b4186f6b6457e09080a3600180551660805260e052600355339060025416176002556101f48060a05260c052612d0590816200018482396080518181816108500152818161143a015281816126c20152612c19015260a051818181610797015261264c015260c051818181610da20152612b5f015260e051818181610ef8015281816126900152612bd90152f35b604051631e4fbdf760e01b815260006004820152602490fd5b600080fd5b634e487b7160e01b600052604160045260246000fd5b51906001600160a01b0382168203620001535756fe6080604052600436101561001257600080fd5b60003560e01c806302c009ef14611ced578063042db2e614611ccf578063072ea61c14611cb15780630832275e14611b6957806309c95e1014611b2a5780630ceaceab1461151957806317ee395b146114ce5780632ac5df93146114a25780635052617d14611486578063590d0f9914611469578063625d9ce5146101a857806365156b3114611424578063715018a6146113cb57806373d2257314611308578063745be576146112dc57806374946fe0146110915780637adbf9731461102a5780637dc0d1d0146110015780637e12170d14610fb85780638366021714610f505780638da5cb5b14610f275780638ea5220f14610ee25780639bea95ac14610eb1578063a1ce7ecb14610dc5578063a4957efe14610d8a578063a4f4ec2a146107ba578063b0dbf47d1461077f578063c56a00de1461052d578063c81b986c14610349578063d70981541461031f578063d80528ae146102ea578063e734e60c146102be578063eb770d0c1461025f578063f2fde38b146101d6578063f60cdcf6146101ad5763fbb0de53146101a857600080fd5b612281565b346101d15760003660031901126101d157602063ffffffff60145416604051908152f35b600080fd5b346101d15760203660031901126101d1576101ef6120fc565b6101f7612455565b6001600160a01b0390811690811561024657600054826001600160601b0360a01b821617600055167f8be0079c531659141344cd1fd0a4f28419497f9722a3daafe3b4186f6b6457e0600080a3005b604051631e4fbdf760e01b815260006004820152602490fd5b346101d15760203660031901126101d15760043561027b612455565b80156102ac57806003557f565a4bfd76b3419546eefb0f3228d436837362a9b57e0c3a03227225dfec023d600080a2005b6040516358d620b360e01b8152600490fd5b346101d15760203660031901126101d15760043560005260076020526020604060002054604051908152f35b346101d15760003660031901126101d157606060105463ffffffff601154166012549060405192835260208301526040820152f35b346101d15760203660031901126101d15761033861252c565b61034360043561259a565b60018055005b346101d15760203660031901126101d15760405161036681612164565b60008152600060208201526000604082015260405161038481612112565b60005b610140811061050357600060c0848460608201528260808201528260a08201520152600435600052600a6020526040600020604051906103c682612164565b80546001600160a01b03168252600181015460208301526002810154604080840191909152516103f581612112565b600382016000825b600a82106104e6578560ff600e87876060850152600d8101546080850152015481811660a084015260081c16151560c082015260405160018060a01b03825116815260208201516020820152604082015160408201526060820151606082016000905b600a8210610494576104808460c087608081015161042084015260ff60a08201511661044084015201511515610460820152f35b825160ff8151168252602081015160028110156104d0578260ff6040602094606094866001980152015116604082015201930191019091610460565b634e487b7160e01b600052602160045260246000fd5b6001602081926104f58661254f565b8152019301910190916103fd565b60209060405161051281612149565b60008152600083820152600060408201528184015201610387565b346101d1576020806003193601126101d15760405161054b81612112565b8160005b61014081106107115750600435600052600580825260406000206040519161057683612112565b600084845b600a83106106685750604051818152600091610160808301918891908085015b600a87106105a95785850386f35b909192938280600192601f198982030185526106588851916001600160401b03928381511682526105fa6105e8868301518c888601528c8501906123f2565b604083015184820360408601526123f2565b9360609081830151169083015263ffffffff60808181840151169084015260a08181840151169084015260c0818184015116908401528060e08301511660e08401526101009081830151169083015261012080910151910190612432565b960192019601959291909261059b565b600191849160405161067981612112565b6001600160401b03808954168252610692868a01612315565b848301526106a260028a01612315565b6040830152600389015460609181168284015263ffffffff918282608092828260401c1684880152828260a0921c1681880152828260c0951c16848801521c1660e08501521c166101008201526106fb600489016123bb565b610120820152815201940191019092859061057b565b60405161071d81612112565b6000815260006060808584015280604084015282015260006080820152600060a0820152600060c0820152600060e082015260006101008201526040516107638161217f565b600081526000848201526101208201528184015201829061054f565b346101d15760003660031901126101d15760206040517f00000000000000000000000000000000000000000000000000000000000000008152f35b346101d1576103c03660031901126101d15736602312156101d1576040516107e181612112565b806103c43681116101d1576004915b818310610d34578361080061252c565b600454806000526006602052604060002054421015610d22576003546040516323b872dd60e01b8152336004820152306024820152604481018290526001600160a01b03939060208160648160007f00000000000000000000000000000000000000000000000000000000000000008a165af18015610d1657610ce7575b508260005260058060205260406000206040519161089b83612112565b6000835b600a8210610c3f575050505060005b600a8110610b3b5750506108c3600b54612481565b9384600b55604051916108d583612164565b3383526020830190858252426040850152606084015260006080840152600060a0840152600060c084015285600052600a6020526040600020918351166001600160601b0360a01b83541617825551600182015560408201516002820155606082015160038201906000905b600a8210610aee57505050600e906080830151600d820155019060ff60a08201511661ff0060c08454930151151560081b169161ffff19161717905581600052600c6020526040600020336000526020526040600020805468010000000000000000811015610ad85760018101808355811015610ac25784916000526020600020015581600052600860205260406000206109dd8282546124a1565b90556109eb816010546124a1565b60105560115463ffffffff9182610a03818416612517565b1663ffffffff1980931617601155836000526009602052610a2a60406000209182546124a1565b9055826000526009602052600160406000200180548284610a4c818416612517565b1691161790553360005260136020526040600020805460ff811615610a9a575b8533867ff6e7d09282448c842ef23b148b6dfa2dc4b69839898341f8fb5065eb496cb0fa600080a460018055005b60ff1916600117905560145491610ab2818416612517565b1691161760145582808080610a6c565b634e487b7160e01b600052603260045260246000fd5b634e487b7160e01b600052604160045260246000fd5b805160ff81511690845492602082015160028110156104d057600194859461ff0062ff00006040602097015160101b169360081b169162ffffff1916171717865501930191019091610941565b610b458184612490565b5160ff90828282511603610c2d57610b5d8385612490565b5191602082015191600292838110156104d057610bf657604001511680610bb357505063ffffffff608081920151165b1615610ba157610b9c90612481565b6108ae565b604051638d83e18960e01b8152600490fd5b60018103610bce57505063ffffffff60a08192015116610b8d565b03610be45763ffffffff60c08192015116610b8d565b604051631efccef760e11b8152600490fd5b6040015116905080610c14575063ffffffff60e08192015116610b8d565b600103610be45763ffffffff6101008192015116610b8d565b604051635651f66960e11b8152600490fd5b826020600192604051610c5181612112565b6001600160401b03808954168252610c6a868a01612315565b84830152610c7a60028a01612315565b6040830152600389015460609181168284015263ffffffff918282608092828260401c1684880152828260a0921c1681880152828260c0951c16848801521c1660e08501521c16610100820152610cd3600489016123bb565b61012082015281520194019101909261089f565b610d089060203d602011610d0f575b610d00818361219a565b8101906124ff565b508461087e565b503d610cf6565b6040513d6000823e3d90fd5b6040516330e2a62560e11b8152600490fd5b6060833603126101d15760405190610d4b82612149565b610d5484612273565b8252602090818501359260028410156101d15760609383820152610d7a60408701612273565b60408201528152019201916107f0565b346101d15760003660031901126101d15760206040517f00000000000000000000000000000000000000000000000000000000000000008152f35b346101d157610dd33661229d565b906000526005602052604060002090600a8110156101d157610df4916122c7565b506001600160401b038082541690610ead610e1160018501612315565b93610e1e60028201612315565b90610e5e610e336004600384015493016123bb565b92610e5060405198899889526101608060208b01528901906123f2565b9087820360408901526123f2565b938116606086015263ffffffff90818160401c166080870152818160601c1660a0870152818160801c1660c0870152818160a01c1660e087015260c01c16610100850152610120840190612432565b0390f35b346101d15760203660031901126101d157600435600052600e602052602060ff604060002054166040519015158152f35b346101d15760003660031901126101d1576040517f00000000000000000000000000000000000000000000000000000000000000006001600160a01b03168152602090f35b346101d15760003660031901126101d1576000546040516001600160a01b039091168152602090f35b346101d157610f5e3661229d565b90600052600d602052604060002060058210156101d157608091610f81916122b3565b5060018060a01b038154169060018101549060ff600360028301549201541691604051938452602084015260408301526060820152f35b346101d15760203660031901126101d1576004356000526009602052606060406000206001815491015460405191825263ffffffff90818116602084015260201c166040820152f35b346101d15760003660031901126101d1576002546040516001600160a01b039091168152602090f35b346101d15760203660031901126101d1576110436120fc565b61104b612455565b600280546001600160a01b0319166001600160a01b039290921691821790557f3f32684a32a11dabdbb8c0177de80aa3ae36a004d75210335b49e544e48cd0aa600080a2005b346101d1576102803660031901126101d15736602312156101d1576040516110b881612112565b610284813682116101d1576004905b8282106112c25760025484906001600160a01b031633036112b1576004549081600052602090600e825260ff90816040600020541661127357836000526006835260406000205442111561122e5760005b600a81106111cb5750505081600052600e81526040600020600160ff19825416179055620151804201908142116111b5577fdd45cfbd9f2d20e6b7b6f5fa3148363d48017feae0c98de41ec4435a5aa754469183600052600782526040600020556009815263ffffffff60016040600020015416156111a5575b60088152604060002054604051908152a2005b6007815242604060002055611192565b634e487b7160e01b600052601160045260246000fd5b6111d58183612490565b5190856000526005855260046111ef8260406000206122c7565b5001825160048110156104d0578682549401519360038510156104d0578661ff006112299660081b1692169061ffff191617179055612481565b611118565b60405162461bcd60e51b815260048101849052601760248201527f42657474696e6720706572696f64206e6f74206f7665720000000000000000006044820152606490fd5b60405162461bcd60e51b815260048101849052601660248201527510de58db1948185b1c9958591e481c995cdbdb1d995960521b6044820152606490fd5b6040516282b42960e81b8152600490fd5b60206040916112d13685612236565b8152019101906110c7565b346101d15760203660031901126101d15760043560005260086020526020604060002054604051908152f35b346101d15760403660031901126101d1576113216120fc565b602435600052602090600c825260406000209060018060a01b03166000528152604060002060405190818382549182815201908192600052846000209060005b868282106113b75786866113778288038361219a565b604051928392818401908285525180915260408401929160005b8281106113a057505050500390f35b835185528695509381019392810192600101611391565b835485529093019260019283019201611361565b346101d15760003660031901126101d1576113e4612455565b600080546001600160a01b0319811682556001600160a01b03167f8be0079c531659141344cd1fd0a4f28419497f9722a3daafe3b4186f6b6457e08280a3005b346101d15760003660031901126101d1576040517f00000000000000000000000000000000000000000000000000000000000000006001600160a01b03168152602090f35b346101d15760003660031901126101d15760206040516103e88152f35b346101d15760003660031901126101d1576020604051600a8152f35b346101d15760203660031901126101d15760043560005260066020526020604060002054604051908152f35b346101d15760403660031901126101d15760243560ff81168091036101d157600435600052600f602052604060002090600052602052602060ff604060002054166040519015158152f35b346101d1576003196020368201126101d157600435906001600160401b0382116101d157366023830112156101d1576040519161155583612112565b82916101448201913683116101d15780600401935b838510611a135760025486906001600160a01b031633036112b1576001600160401b0360005b600a81106119b75750603c42018042116111b5576001600160401b03821611156119a5576115bf600454612481565b918260045560001983018381116111b5576115d990612b02565b82600052600560205260406000206000915b600a8310611682575050506001600160401b03603b199116016001600160401b0381116111b5576001600160401b0390826000526006602052166040600020556007602052600019604060002055600e602052604060002060ff19815416905560066020527f62eeb403dc233a7676f50cdb0fd72dae595aeb7c63039adce5caacc33254f9c06020604060002054604051908152a2005b8051906001600160401b038251166001600160401b031984541617835560208201518051906001600160401b038211610ad85781906116c460018701546122db565b601f8111611970575b50602090601f83116001146118fe576000926118f3575b50508160011b916000199060031b1c19161760018401555b60408201518051906001600160401b038211610ad857819061172160028701546122db565b601f81116118b3575b50602090601f831160011461184157600092611836575b50508160011b916000199060031b1c19161760028401555b600380840160606001600160401b0381860151168254916080916bffffffff00000000000000008389015160401b1660a09263ffffffff60601b90848b0151901b169160c09463ffffffff60801b90868c0151901b169363ffffffff60a01b9060e08c0151901b169463ffffffff60c01b906101008c0151901b169563ffffffff60e01b161717171717179055610120600485019301519182519360048510156104d05760208154940151928310156104d05760019460059460ff61ff0060209660081b1692169061ffff191617179055019201920191906115eb565b015190508880611741565b9250600286016000526020600020906000935b601f1984168510611898576001945083601f1981161061187f575b505050811b016002840155611759565b015160001960f88460031b161c1916905588808061186f565b81810151835560209485019460019093019290910190611854565b6118e390600288016000526020600020601f850160051c810191602086106118e9575b601f0160051c01906124ce565b8961172a565b90915081906118d6565b0151905088806116e4565b9250600186016000526020600020906000935b601f1984168510611955576001945083601f1981161061193c575b505050811b0160018401556116fc565b015160001960f88460031b161c1916905588808061192c565b81810151835560209485019460019093019290910190611911565b61199f90600188016000526020600020601f850160051c810191602086106118e957601f0160051c01906124ce565b896116cd565b604051632ca4094f60e21b8152600490fd5b60606001600160401b03816119cc8487612490565b510151166001600160401b038416116119ef575b506119ea90612481565b611590565b8192506001600160401b0390611a086119ea9386612490565b5101511691906119e0565b84356001600160401b0381116101d15782016101608482360301126101d15760405191611a3f83612112565b611a4b600483016121bb565b835260248201356001600160401b0381116101d157611a7090600436918501016121cf565b60208401526044820135926001600160401b0384116101d157611b1960209493611aa18695600436918401016121cf565b6040840152611ab2606482016121bb565b6060840152611ac360848201612225565b6080840152611ad460a48201612225565b60a0840152611ae560c48201612225565b60c0840152611af660e48201612225565b60e0840152611b086101048201612225565b610100840152610124369101612236565b61012082015281520194019361156a565b346101d15760203660031901126101d1576001600160a01b03611b4b6120fc565b166000526013602052602060ff604060002054166040519015158152f35b346101d1576020806003193601126101d15760405160a0906001600160401b039082810182811182821017610ad8576040528360005b848110611c8157505050600435600052600d83526040600020906040519283019083821090821117610ad857604052600083835b60058310611c3557508360405191826000905b60058210611bf45761028085f35b835180516001600160a01b0316825280840151828501526040808201519083015260609081015160ff16908201529282019260019190910190608001611be6565b600191600491604051611c478161212e565b848060a01b03875416815284870154838201526002870154604082015260ff60038801541660608201528152019301910190918490611bd3565b604051611c8d8161212e565b60008152600083820152600060408201526000606082015281840152018490611b9f565b346101d15760003660031901126101d1576020600354604051908152f35b346101d15760003660031901126101d1576020600454604051908152f35b346101d15760203660031901126101d157611d0661252c565b600435600052600a6020526040600020600181015480600052600e60205260ff60406000205416156120ea57600e8201549160ff8360081c166120d8576000906103e883600052600560205260406000209460405195611d6587612112565b6000875b600a821061202f5750505060005b600a8110611e32575061ffff191660ff841690811761010017600e840155939450611dbe9315611e2957905b600d810182905554600435906001600160a01b031685612850565b8060005260096020526001604060002001805463ffffffff8167ffffffff00000000611def83809560201c16612517565b60201b1667ffffffff0000000019821617809455169160201c1614611e145760018055005b60005260076020524260406000205580610343565b50600090611da3565b611e4060038286010161254f565b611e4a8289612490565b51906000602082015160028110156104d057611fb45760ff6040830151161580611f94575b8015611f62575b8015611f30575b611f28575b611e97575b5050611e9290612481565b611d77565b91939095611ea490612589565b9560208301519160028310156104d05763ffffffff80611ee89360ff6040611e92986103e89815600014611f0c5701511680611ef1575060800151165b16906124bb565b04929088611e87565b600103611f025760a0015116611ee1565b60c0015116611ee1565b015116611f1d5760e0015116611ee1565b610100015116611ee1565b506001611e82565b50600260ff604084015116148015611e7d5750611f516101208401516124e5565b60048110156104d057600314611e7d565b50600160ff604084015116148015611e765750611f836101208401516124e5565b60048110156104d057600214611e76565b50611fa36101208401516124e5565b60048110156104d057600114611e6f565b60ff604083015116158061200c575b8015611fd7575b15611e8257506001611e82565b50600160ff604084015116148015611fca5750611ffb6020610120850151016124f2565b60038110156104d057600214611fca565b5061201e6020610120850151016124f2565b60038110156104d057600114611fc3565b6005602060019260405161204281612112565b6001600160401b0380885416825261205b868901612315565b8483015261206b60028901612315565b6040830152600388015460609181168284015263ffffffff918282608092828260401c1684880152828260a0921c1681880152828260c0951c16848801521c1660e08501521c166101008201526120c4600488016123bb565b610120820152815201930191019091611d69565b604051636d3e967760e01b8152600490fd5b6040516328ae54ed60e01b8152600490fd5b600435906001600160a01b03821682036101d157565b61014081019081106001600160401b03821117610ad857604052565b608081019081106001600160401b03821117610ad857604052565b606081019081106001600160401b03821117610ad857604052565b60e081019081106001600160401b03821117610ad857604052565b604081019081106001600160401b03821117610ad857604052565b90601f801991011681019081106001600160401b03821117610ad857604052565b35906001600160401b03821682036101d157565b81601f820112156101d1578035906001600160401b038211610ad85760405192612203601f8401601f19166020018561219a565b828452602083830101116101d157816000926020809301838601378301015290565b359063ffffffff821682036101d157565b91908260409103126101d15760405161224e8161217f565b809280359060048210156101d157602091835201359060038210156101d15760200152565b359060ff821682036101d157565b346101d15760003660031901126101d157602060405160058152f35b60409060031901126101d1576004359060243590565b906005811015610ac25760021b0190600090565b90600a811015610ac2576005020190600090565b90600182811c9216801561230b575b60208310146122f557565b634e487b7160e01b600052602260045260246000fd5b91607f16916122ea565b9060405191826000825492612329846122db565b9081845260019485811690816000146123985750600114612355575b50506123539250038361219a565b565b9093915060005260209081600020936000915b81831061238057505061235393508201013880612345565b85548884018501529485019487945091830191612368565b91505061235394506020925060ff191682840152151560051b8201013880612345565b906040516123c88161217f565b80925460ff81169060048210156104d05760ff91835260081c169060038210156104d05760200152565b919082519283825260005b84811061241e575050826000602080949584010152601f8019910116010190565b6020818301810151848301820152016123fd565b80519060048210156104d057602091835201519060038210156104d05760200152565b6000546001600160a01b0316330361246957565b60405163118cdaa760e01b8152336004820152602490fd5b60001981146111b55760010190565b90600a811015610ac25760051b0190565b919082018092116111b557565b919082039182116111b557565b818102929181159184041417156111b557565b8181106124d9575050565b600081556001016124ce565b5160048110156104d05790565b5160038110156104d05790565b908160209103126101d1575180151581036101d15790565b63ffffffff8091169081146111b55760010190565b60026001541461253d576002600155565b604051633ee5aeb560e01b8152600490fd5b9060405161255c81612149565b80925460ff8116825260ff8160081c1660028110156104d05760409160ff91602085015260101c16910152565b60ff1660ff81146111b55760010190565b90600091808352602090600e825260ff9160409083828720541615612832578286526007815281862054421061282157828652600d815281862086908790885b6005888216106127eb575b5050156127da57838752600f82528287209480821695868952835283882054166127c957838752600882528287205461261d91612a76565b9081156127a857838752600f81528287208588528152828720805460ff191660011790556126796127106126717f0000000000000000000000000000000000000000000000000000000000000000856124bb565b0480936124ae565b835163a9059cbb60e01b8082526001600160a01b037f000000000000000000000000000000000000000000000000000000000000000081166004840152602483019590955291937f000000000000000000000000000000000000000000000000000000000000000016919083816044818d875af1801561279e5790849291612781575b5085519081523360048201526024810185905291829060449082908c905af18015612777577f64da964e036dd66a7be792791f60a47ec5378950b9d12795de3f453aa3940eb0959697985061275a575b5082519586528501523393a3565b61277090823d8411610d0f57610d00818361219a565b503861274c565b84513d8a823e3d90fd5b61279790833d8511610d0f57610d00818361219a565b50386126fc565b86513d8c823e3d90fd5b92865250600f8252808520928552919052909120805460ff19166001179055565b825163611ab18960e11b8152600490fd5b825163b305461d60e01b8152600490fd5b6127f581836122b3565b50546001600160a01b031633146128145761280f90612589565b6125da565b92505050600138806125e5565b8151632ff18b4b60e11b8152600490fd5b81516328ae54ed60e01b8152600490fd5b80156111b5576000190190565b909493919260ff8093169360058510612a6d576000928352600d6020526040832060001997906005805b6129e7575b5060018901612894575b505050505050509050565b600498895b81811161293357506128d990604051926128b28461212e565b6001600160a01b039485168452602084019586526040840196875260608401998a526122b3565b95909561292157506003959697985051166001600160601b0360a01b8454161783555160018301555160028201550191511660ff198254161790558038808080808080612889565b634e487b7160e01b8152808a52602490fd5b60001981018181116129d45761294990846122b3565b5061295482856122b3565b6129c2579089828261296f959403612974575b505050612843565b612899565b825481546001600160a01b0319166001600160a01b039190911617815560018381015490820155600280840154908201556003928301549201805460ff191691909216179055388981612967565b634e487b7160e01b8952888d52602489fd5b634e487b7160e01b885260118c52602488fd5b986000198a01908a8211612a59576129ff82846122b3565b5060028101549089828911928315612a34575b505050600014612a2d5750612a279099612843565b8061287a565b995061287f565b891492509082612a49575b5050388981612a12565b60030154168a1190508838612a3f565b634e487b7160e01b87526011600452602487fd5b50505050509050565b60009060ff1680612a97575050612a9361271091610fa0906124bb565b0490565b60018103612ab1575050612a9361271091610bb8906124bb565b60028103612acb575050612a93612710916107d0906124bb565b60038103612ae5575050612a93612710916101f4906124bb565b600403612afd5750612a93612710916101f4906124bb565b905090565b908115612ccb57600091808352602090600d825260409182852060018060a01b03908181541615908115612cb8575b50612b3f575b505050509050565b60088252838620549384612b54575b50612b37565b612b8c612710612b847f0000000000000000000000000000000000000000000000000000000000000000886124bb565b0480966124ae565b918488526008845287828120556001850195868611612ca457612c158992869289855260088452858520612bc18882546124a1565b9055855163a9059cbb60e01b81526001600160a01b037f0000000000000000000000000000000000000000000000000000000000000000166004820152602481019190915293849283919082906044820190565b03927f0000000000000000000000000000000000000000000000000000000000000000165af18015612c9a577fd02ee9eafb934e2ffd95384478ef177c9932fd0d6cb1813747b8eefdf55d8b199596979850612c7d575b5051908152a3803880808080612b4e565b612c9390843d8611610d0f57610d00818361219a565b5038612c6c565b82513d8a823e3d90fd5b634e487b7160e01b89526011600452602489fd5b60059150600360ff910154161038612b31565b905056fea26469706673582212206faafddd972ab7b964e9af9a5500b2de2f1f8aac605373af4156b2d51d0c92d664736f6c63430008140033",
  "linkReferences": {},
  "deployedLinkReferences": {}
}